{
  "_format": "hh-sol-artifact-1",
  "contractName": "GritNFT",
  "sourceName": "contracts/GritNFT.sol",
  "abi": [
    {
      "inputs": [],
      "stateMutability": "nonpayable",
      "type": "constructor"
    },
    {
      "anonymous": false,
      "inputs": [
        {
          "indexed": true,
          "internalType": "address",
          "name": "owner",
          "type": "address"
        },
        {
          "indexed": true,
          "internalType": "address",
          "name": "approved",
          "type": "address"
        },
        {
          "indexed": true,
          "internalType": "uint256",
          "name": "tokenId",
          "type": "uint256"
        }
      ],
      "name": "Approval",
      "type": "event"
    },
    {
      "anonymous": false,
      "inputs": [
        {
          "indexed": true,
          "internalType": "address",
          "name": "owner",
          "type": "address"
        },
        {
          "indexed": true,
          "internalType": "address",
          "name": "operator",
          "type": "address"
        },
        {
          "indexed": false,
          "internalType": "bool",
          "name": "approved",
          "type": "bool"
        }
      ],
      "name": "ApprovalForAll",
      "type": "event"
    },
    {
      "anonymous": false,
      "inputs": [
        {
          "indexed": false,
          "internalType": "address",
          "name": "sender",
          "type": "address"
        },
        {
          "indexed": false,
          "internalType": "uint256",
          "name": "tokenId",
          "type": "uint256"
        },
        {
          "indexed": false,
          "internalType": "string",
          "name": "name",
          "type": "string"
        },
        {
          "indexed": false,
          "internalType": "string",
          "name": "description",
          "type": "string"
        },
        {
          "indexed": false,
          "internalType": "uint256",
          "name": "createdAt",
          "type": "uint256"
        },
        {
          "indexed": false,
          "internalType": "uint256",
          "name": "dueDate",
          "type": "uint256"
        }
      ],
      "name": "NewNFTMinted",
      "type": "event"
    },
    {
      "anonymous": false,
      "inputs": [
        {
          "indexed": true,
          "internalType": "address",
          "name": "from",
          "type": "address"
        },
        {
          "indexed": true,
          "internalType": "address",
          "name": "to",
          "type": "address"
        },
        {
          "indexed": true,
          "internalType": "uint256",
          "name": "tokenId",
          "type": "uint256"
        }
      ],
      "name": "Transfer",
      "type": "event"
    },
    {
      "inputs": [
        {
          "internalType": "address",
          "name": "to",
          "type": "address"
        },
        {
          "internalType": "uint256",
          "name": "tokenId",
          "type": "uint256"
        }
      ],
      "name": "approve",
      "outputs": [],
      "stateMutability": "nonpayable",
      "type": "function"
    },
    {
      "inputs": [
        {
          "internalType": "address",
          "name": "owner",
          "type": "address"
        }
      ],
      "name": "balanceOf",
      "outputs": [
        {
          "internalType": "uint256",
          "name": "",
          "type": "uint256"
        }
      ],
      "stateMutability": "view",
      "type": "function"
    },
    {
      "inputs": [
        {
          "internalType": "uint256",
          "name": "tokenId",
          "type": "uint256"
        }
      ],
      "name": "getApproved",
      "outputs": [
        {
          "internalType": "address",
          "name": "",
          "type": "address"
        }
      ],
      "stateMutability": "view",
      "type": "function"
    },
    {
      "inputs": [
        {
          "internalType": "uint256[]",
          "name": "tokenIds",
          "type": "uint256[]"
        }
      ],
      "name": "getMetadatas",
      "outputs": [
        {
          "components": [
            {
              "internalType": "string",
              "name": "name",
              "type": "string"
            },
            {
              "internalType": "string",
              "name": "imageSVG",
              "type": "string"
            },
            {
              "internalType": "string",
              "name": "description",
              "type": "string"
            },
            {
              "internalType": "uint256",
              "name": "createdAt",
              "type": "uint256"
            },
            {
              "internalType": "uint256",
              "name": "dueDate",
              "type": "uint256"
            },
            {
              "internalType": "uint256",
              "name": "achievedAt",
              "type": "uint256"
            }
          ],
          "internalType": "struct GritNFT.NftAttributes[]",
          "name": "",
          "type": "tuple[]"
        }
      ],
      "stateMutability": "view",
      "type": "function"
    },
    {
      "inputs": [
        {
          "internalType": "address",
          "name": "owner",
          "type": "address"
        }
      ],
      "name": "getTokenIds",
      "outputs": [
        {
          "internalType": "uint256[]",
          "name": "",
          "type": "uint256[]"
        }
      ],
      "stateMutability": "view",
      "type": "function"
    },
    {
      "inputs": [
        {
          "internalType": "address",
          "name": "owner",
          "type": "address"
        },
        {
          "internalType": "address",
          "name": "operator",
          "type": "address"
        }
      ],
      "name": "isApprovedForAll",
      "outputs": [
        {
          "internalType": "bool",
          "name": "",
          "type": "bool"
        }
      ],
      "stateMutability": "view",
      "type": "function"
    },
    {
      "inputs": [
        {
          "internalType": "uint256",
          "name": "tokenId",
          "type": "uint256"
        }
      ],
      "name": "isExpiredOf",
      "outputs": [
        {
          "internalType": "bool",
          "name": "",
          "type": "bool"
        }
      ],
      "stateMutability": "view",
      "type": "function"
    },
    {
      "inputs": [
        {
          "internalType": "uint256",
          "name": "tokenId",
          "type": "uint256"
        }
      ],
      "name": "isOwnerOf",
      "outputs": [
        {
          "internalType": "bool",
          "name": "",
          "type": "bool"
        }
      ],
      "stateMutability": "view",
      "type": "function"
    },
    {
      "inputs": [
        {
          "internalType": "string",
          "name": "name",
          "type": "string"
        },
        {
          "internalType": "string",
          "name": "description",
          "type": "string"
        },
        {
          "internalType": "uint256",
          "name": "dueDate",
          "type": "uint256"
        }
      ],
      "name": "makeNFT",
      "outputs": [],
      "stateMutability": "nonpayable",
      "type": "function"
    },
    {
      "inputs": [],
      "name": "name",
      "outputs": [
        {
          "internalType": "string",
          "name": "",
          "type": "string"
        }
      ],
      "stateMutability": "view",
      "type": "function"
    },
    {
      "inputs": [
        {
          "internalType": "uint256",
          "name": "tokenId",
          "type": "uint256"
        }
      ],
      "name": "ownerOf",
      "outputs": [
        {
          "internalType": "address",
          "name": "",
          "type": "address"
        }
      ],
      "stateMutability": "view",
      "type": "function"
    },
    {
      "inputs": [
        {
          "internalType": "address",
          "name": "from",
          "type": "address"
        },
        {
          "internalType": "address",
          "name": "to",
          "type": "address"
        },
        {
          "internalType": "uint256",
          "name": "tokenId",
          "type": "uint256"
        }
      ],
      "name": "safeTransferFrom",
      "outputs": [],
      "stateMutability": "nonpayable",
      "type": "function"
    },
    {
      "inputs": [
        {
          "internalType": "address",
          "name": "from",
          "type": "address"
        },
        {
          "internalType": "address",
          "name": "to",
          "type": "address"
        },
        {
          "internalType": "uint256",
          "name": "tokenId",
          "type": "uint256"
        },
        {
          "internalType": "bytes",
          "name": "data",
          "type": "bytes"
        }
      ],
      "name": "safeTransferFrom",
      "outputs": [],
      "stateMutability": "nonpayable",
      "type": "function"
    },
    {
      "inputs": [
        {
          "internalType": "address",
          "name": "operator",
          "type": "address"
        },
        {
          "internalType": "bool",
          "name": "approved",
          "type": "bool"
        }
      ],
      "name": "setApprovalForAll",
      "outputs": [],
      "stateMutability": "nonpayable",
      "type": "function"
    },
    {
      "inputs": [
        {
          "internalType": "bytes4",
          "name": "interfaceId",
          "type": "bytes4"
        }
      ],
      "name": "supportsInterface",
      "outputs": [
        {
          "internalType": "bool",
          "name": "",
          "type": "bool"
        }
      ],
      "stateMutability": "view",
      "type": "function"
    },
    {
      "inputs": [],
      "name": "symbol",
      "outputs": [
        {
          "internalType": "string",
          "name": "",
          "type": "string"
        }
      ],
      "stateMutability": "view",
      "type": "function"
    },
    {
      "inputs": [
        {
          "internalType": "uint256",
          "name": "index",
          "type": "uint256"
        }
      ],
      "name": "tokenByIndex",
      "outputs": [
        {
          "internalType": "uint256",
          "name": "",
          "type": "uint256"
        }
      ],
      "stateMutability": "view",
      "type": "function"
    },
    {
      "inputs": [
        {
          "internalType": "address",
          "name": "owner",
          "type": "address"
        },
        {
          "internalType": "uint256",
          "name": "index",
          "type": "uint256"
        }
      ],
      "name": "tokenOfOwnerByIndex",
      "outputs": [
        {
          "internalType": "uint256",
          "name": "",
          "type": "uint256"
        }
      ],
      "stateMutability": "view",
      "type": "function"
    },
    {
      "inputs": [
        {
          "internalType": "uint256",
          "name": "tokenId",
          "type": "uint256"
        }
      ],
      "name": "tokenURI",
      "outputs": [
        {
          "internalType": "string",
          "name": "",
          "type": "string"
        }
      ],
      "stateMutability": "view",
      "type": "function"
    },
    {
      "inputs": [],
      "name": "totalSupply",
      "outputs": [
        {
          "internalType": "uint256",
          "name": "",
          "type": "uint256"
        }
      ],
      "stateMutability": "view",
      "type": "function"
    },
    {
      "inputs": [
        {
          "internalType": "address",
          "name": "from",
          "type": "address"
        },
        {
          "internalType": "address",
          "name": "to",
          "type": "address"
        },
        {
          "internalType": "uint256",
          "name": "tokenId",
          "type": "uint256"
        }
      ],
      "name": "transferFrom",
      "outputs": [],
      "stateMutability": "nonpayable",
      "type": "function"
    },
    {
      "inputs": [
        {
          "internalType": "uint256",
          "name": "tokenId",
          "type": "uint256"
        }
      ],
      "name": "updateNFTOf",
      "outputs": [],
      "stateMutability": "payable",
      "type": "function"
    }
  ],
  "bytecode": "0x608060405260405180610160016040528061012f81526020016200584661012f9139600b908162000031919062000469565b503480156200003f57600080fd5b506040518060400160405280600781526020017f477269744e4654000000000000000000000000000000000000000000000000008152506040518060400160405280600481526020017f47726974000000000000000000000000000000000000000000000000000000008152508160009081620000bd919062000469565b508060019081620000cf919062000469565b5050506200011d6040518060400160405280601981526020017f5468697320697320477269744e465420636f6e74726163742e000000000000008152506200012360201b6200187a1760201c565b62000603565b620001c3816040516024016200013a9190620005df565b6040516020818303038152906040527f41304fac000000000000000000000000000000000000000000000000000000007bffffffffffffffffffffffffffffffffffffffffffffffffffffffff19166020820180517bffffffffffffffffffffffffffffffffffffffffffffffffffffffff8381831617835250505050620001c660201b60201c565b50565b60008151905060006a636f6e736f6c652e6c6f679050602083016000808483855afa5050505050565b600081519050919050565b7f4e487b7100000000000000000000000000000000000000000000000000000000600052604160045260246000fd5b7f4e487b7100000000000000000000000000000000000000000000000000000000600052602260045260246000fd5b600060028204905060018216806200027157607f821691505b60208210810362000287576200028662000229565b5b50919050565b60008190508160005260206000209050919050565b60006020601f8301049050919050565b600082821b905092915050565b600060088302620002f17fffffffffffffffffffffffffffffffffffffffffffffffffffffffffffffffff82620002b2565b620002fd8683620002b2565b95508019841693508086168417925050509392505050565b6000819050919050565b6000819050919050565b60006200034a620003446200033e8462000315565b6200031f565b62000315565b9050919050565b6000819050919050565b620003668362000329565b6200037e620003758262000351565b848454620002bf565b825550505050565b600090565b6200039562000386565b620003a28184846200035b565b505050565b5b81811015620003ca57620003be6000826200038b565b600181019050620003a8565b5050565b601f8211156200041957620003e3816200028d565b620003ee84620002a2565b81016020851015620003fe578190505b620004166200040d85620002a2565b830182620003a7565b50505b505050565b600082821c905092915050565b60006200043e600019846008026200041e565b1980831691505092915050565b60006200045983836200042b565b9150826002028217905092915050565b6200047482620001ef565b67ffffffffffffffff81111562000490576200048f620001fa565b5b6200049c825462000258565b620004a9828285620003ce565b600060209050601f831160018114620004e15760008415620004cc578287015190505b620004d885826200044b565b86555062000548565b601f198416620004f1866200028d565b60005b828110156200051b57848901518255600182019150602085019450602081019050620004f4565b868310156200053b578489015162000537601f8916826200042b565b8355505b6001600288020188555050505b505050505050565b600082825260208201905092915050565b60005b838110156200058157808201518184015260208101905062000564565b60008484015250505050565b6000601f19601f8301169050919050565b6000620005ab82620001ef565b620005b7818562000550565b9350620005c981856020860162000561565b620005d4816200058d565b840191505092915050565b60006020820190508181036000830152620005fb81846200059e565b905092915050565b61523380620006136000396000f3fe6080604052600436106101355760003560e01c806370a08231116100ab578063b88d4fde1161006f578063b88d4fde14610470578063c17fbcdd14610499578063c87b56dd146104d6578063d004b03614610513578063ddb1373914610550578063e985e9c51461056c57610135565b806370a082311461036557806375adc730146103a257806395d89b41146103df578063a22cb4651461040a578063ab6520f41461043357610135565b806318160ddd116100fd57806318160ddd1461023157806323b872dd1461025c5780632f745c591461028557806342842e0e146102c25780634f6ccce7146102eb5780636352211e1461032857610135565b806301ffc9a71461013a578063031962231461017757806306fdde03146101a0578063081812fc146101cb578063095ea7b314610208575b600080fd5b34801561014657600080fd5b50610161600480360381019061015c91906131ff565b6105a9565b60405161016e9190613247565b60405180910390f35b34801561018357600080fd5b5061019e600480360381019061019991906133de565b610623565b005b3480156101ac57600080fd5b506101b5610771565b6040516101c291906134e8565b60405180910390f35b3480156101d757600080fd5b506101f260048036038101906101ed919061350a565b610803565b6040516101ff9190613578565b60405180910390f35b34801561021457600080fd5b5061022f600480360381019061022a91906135bf565b610849565b005b34801561023d57600080fd5b50610246610960565b604051610253919061360e565b60405180910390f35b34801561026857600080fd5b50610283600480360381019061027e9190613629565b61096d565b005b34801561029157600080fd5b506102ac60048036038101906102a791906135bf565b6109cd565b6040516102b9919061360e565b60405180910390f35b3480156102ce57600080fd5b506102e960048036038101906102e49190613629565b610a72565b005b3480156102f757600080fd5b50610312600480360381019061030d919061350a565b610a92565b60405161031f919061360e565b60405180910390f35b34801561033457600080fd5b5061034f600480360381019061034a919061350a565b610b03565b60405161035c9190613578565b60405180910390f35b34801561037157600080fd5b5061038c6004803603810190610387919061367c565b610bb4565b604051610399919061360e565b60405180910390f35b3480156103ae57600080fd5b506103c960048036038101906103c4919061350a565b610c6b565b6040516103d69190613247565b60405180910390f35b3480156103eb57600080fd5b506103f4610eb6565b60405161040191906134e8565b60405180910390f35b34801561041657600080fd5b50610431600480360381019061042c91906136d5565b610f48565b005b34801561043f57600080fd5b5061045a6004803603810190610455919061350a565b610f5e565b6040516104679190613247565b60405180910390f35b34801561047c57600080fd5b50610497600480360381019061049291906137b6565b610fe2565b005b3480156104a557600080fd5b506104c060048036038101906104bb9190613901565b611044565b6040516104cd9190613afc565b60405180910390f35b3480156104e257600080fd5b506104fd60048036038101906104f8919061350a565b6112f2565b60405161050a91906134e8565b60405180910390f35b34801561051f57600080fd5b5061053a6004803603810190610535919061367c565b6115b9565b6040516105479190613bcd565b60405180910390f35b61056a6004803603810190610565919061350a565b611669565b005b34801561057857600080fd5b50610593600480360381019061058e9190613bef565b6117e6565b6040516105a09190613247565b60405180910390f35b60007f780e9d63000000000000000000000000000000000000000000000000000000007bffffffffffffffffffffffffffffffffffffffffffffffffffffffff1916827bffffffffffffffffffffffffffffffffffffffffffffffffffffffff1916148061061c575061061b82611913565b5b9050919050565b600061062f600c6119f5565b905060004290506106403383611a03565b610663604051806060016040528060258152602001615199602591398333611a21565b60006106728683866000611ac0565b905060006040518060c001604052808881526020018381526020018781526020018481526020018681526020016000815250905080600a600086815260200190815260200160002060008201518160000190816106cf9190613e3b565b5060208201518160010190816106e59190613e3b565b5060408201518160020190816106fb9190613e3b565b50606082015181600301556080820151816004015560a08201518160050155905050610727600c611ba2565b7fe9f70b87565a884e4f9a8a8aa289cc21a8b14046f587f33f96901b34f4aeed7433858989878a60405161076096959493929190613f0d565b60405180910390a150505050505050565b60606000805461078090613c5e565b80601f01602080910402602001604051908101604052809291908181526020018280546107ac90613c5e565b80156107f95780601f106107ce576101008083540402835291602001916107f9565b820191906000526020600020905b8154815290600101906020018083116107dc57829003601f168201915b5050505050905090565b600061080e82611bb8565b6004600083815260200190815260200160002060009054906101000a900473ffffffffffffffffffffffffffffffffffffffff169050919050565b600061085482610b03565b90508073ffffffffffffffffffffffffffffffffffffffff168373ffffffffffffffffffffffffffffffffffffffff16036108c4576040517f08c379a00000000000000000000000000000000000000000000000000000000081526004016108bb90613fee565b60405180910390fd5b8073ffffffffffffffffffffffffffffffffffffffff166108e3611c03565b73ffffffffffffffffffffffffffffffffffffffff16148061091257506109118161090c611c03565b6117e6565b5b610951576040517f08c379a000000000000000000000000000000000000000000000000000000000815260040161094890614080565b60405180910390fd5b61095b8383611c0b565b505050565b6000600880549050905090565b61097e610978611c03565b82611cc4565b6109bd576040517f08c379a00000000000000000000000000000000000000000000000000000000081526004016109b490614112565b60405180910390fd5b6109c8838383611d59565b505050565b60006109d883610bb4565b8210610a19576040517f08c379a0000000000000000000000000000000000000000000000000000000008152600401610a10906141a4565b60405180910390fd5b600660008473ffffffffffffffffffffffffffffffffffffffff1673ffffffffffffffffffffffffffffffffffffffff168152602001908152602001600020600083815260200190815260200160002054905092915050565b610a8d83838360405180602001604052806000815250610fe2565b505050565b6000610a9c610960565b8210610add576040517f08c379a0000000000000000000000000000000000000000000000000000000008152600401610ad490614236565b60405180910390fd5b60088281548110610af157610af0614256565b5b90600052602060002001549050919050565b6000806002600084815260200190815260200160002060009054906101000a900473ffffffffffffffffffffffffffffffffffffffff169050600073ffffffffffffffffffffffffffffffffffffffff168173ffffffffffffffffffffffffffffffffffffffff1603610bab576040517f08c379a0000000000000000000000000000000000000000000000000000000008152600401610ba2906142d1565b60405180910390fd5b80915050919050565b60008073ffffffffffffffffffffffffffffffffffffffff168273ffffffffffffffffffffffffffffffffffffffff1603610c24576040517f08c379a0000000000000000000000000000000000000000000000000000000008152600401610c1b90614363565b60405180910390fd5b600360008373ffffffffffffffffffffffffffffffffffffffff1673ffffffffffffffffffffffffffffffffffffffff168152602001908152602001600020549050919050565b600080600a60008481526020019081526020016000206040518060c0016040529081600082018054610c9c90613c5e565b80601f0160208091040260200160405190810160405280929190818152602001828054610cc890613c5e565b8015610d155780601f10610cea57610100808354040283529160200191610d15565b820191906000526020600020905b815481529060010190602001808311610cf857829003601f168201915b50505050508152602001600182018054610d2e90613c5e565b80601f0160208091040260200160405190810160405280929190818152602001828054610d5a90613c5e565b8015610da75780601f10610d7c57610100808354040283529160200191610da7565b820191906000526020600020905b815481529060010190602001808311610d8a57829003601f168201915b50505050508152602001600282018054610dc090613c5e565b80601f0160208091040260200160405190810160405280929190818152602001828054610dec90613c5e565b8015610e395780601f10610e0e57610100808354040283529160200191610e39565b820191906000526020600020905b815481529060010190602001808311610e1c57829003601f168201915b50505050508152602001600382015481526020016004820154815260200160058201548152505090506000428260800151109050610eac6040518060400160405280600f81526020017f6973457870697265644f663a202573000000000000000000000000000000000081525082611fbf565b8092505050919050565b606060018054610ec590613c5e565b80601f0160208091040260200160405190810160405280929190818152602001828054610ef190613c5e565b8015610f3e5780601f10610f1357610100808354040283529160200191610f3e565b820191906000526020600020905b815481529060010190602001808311610f2157829003601f168201915b5050505050905090565b610f5a610f53611c03565b838361205b565b5050565b600080610f6a83610b03565b73ffffffffffffffffffffffffffffffffffffffff163373ffffffffffffffffffffffffffffffffffffffff16149050610fd96040518060400160405280600d81526020017f69734f776e65724f663a2025730000000000000000000000000000000000000081525082611fbf565b80915050919050565b610ff3610fed611c03565b83611cc4565b611032576040517f08c379a000000000000000000000000000000000000000000000000000000000815260040161102990614112565b60405180910390fd5b61103e848484846121c7565b50505050565b60606000825167ffffffffffffffff8111156110635761106261327d565b5b60405190808252806020026020018201604052801561109c57816020015b61108961315d565b8152602001906001900390816110815790505b50905060005b83518110156112e857600a60008583815181106110c2576110c1614256565b5b602002602001015181526020019081526020016000206040518060c00160405290816000820180546110f390613c5e565b80601f016020809104026020016040519081016040528092919081815260200182805461111f90613c5e565b801561116c5780601f106111415761010080835404028352916020019161116c565b820191906000526020600020905b81548152906001019060200180831161114f57829003601f168201915b5050505050815260200160018201805461118590613c5e565b80601f01602080910402602001604051908101604052809291908181526020018280546111b190613c5e565b80156111fe5780601f106111d3576101008083540402835291602001916111fe565b820191906000526020600020905b8154815290600101906020018083116111e157829003601f168201915b5050505050815260200160028201805461121790613c5e565b80601f016020809104026020016040519081016040528092919081815260200182805461124390613c5e565b80156112905780601f1061126557610100808354040283529160200191611290565b820191906000526020600020905b81548152906001019060200180831161127357829003601f168201915b5050505050815260200160038201548152602001600482015481526020016005820154815250508282815181106112ca576112c9614256565b5b602002602001018190525080806112e0906143b2565b9150506110a2565b8192505050919050565b60606112fd82611bb8565b6000600a60008481526020019081526020016000206040518060c001604052908160008201805461132d90613c5e565b80601f016020809104026020016040519081016040528092919081815260200182805461135990613c5e565b80156113a65780601f1061137b576101008083540402835291602001916113a6565b820191906000526020600020905b81548152906001019060200180831161138957829003601f168201915b505050505081526020016001820180546113bf90613c5e565b80601f01602080910402602001604051908101604052809291908181526020018280546113eb90613c5e565b80156114385780601f1061140d57610100808354040283529160200191611438565b820191906000526020600020905b81548152906001019060200180831161141b57829003601f168201915b5050505050815260200160028201805461145190613c5e565b80601f016020809104026020016040519081016040528092919081815260200182805461147d90613c5e565b80156114ca5780601f1061149f576101008083540402835291602001916114ca565b820191906000526020600020905b8154815290600101906020018083116114ad57829003601f168201915b505050505081526020016003820154815260200160048201548152602001600582015481525050905060006115498260000151836040015184602001516115148660600151612223565b6115218760800151612223565b604051602001611535959493929190614812565b604051602081830303815290604052612383565b905061158a6040518060400160405280600f81526020017f656e636f6465644a736f6e3a20257300000000000000000000000000000000008152508261251a565b60008160405160200161159d919061494e565b6040516020818303038152906040529050809350505050919050565b606060006115c683610bb4565b67ffffffffffffffff8111156115df576115de61327d565b5b60405190808252806020026020018201604052801561160d5781602001602082028036833780820191505090505b50905060005b61161c84610bb4565b81101561165f5761162d84826109cd565b8282815181106116405761163f614256565b5b6020026020010181815250508080611657906143b2565b915050611613565b8192505050919050565b61167281610f5e565b6116b1576040517f08c379a00000000000000000000000000000000000000000000000000000000081526004016116a8906149bc565b60405180910390fd5b6116ba81610c6b565b1561179b576116fd6040518060400160405280601f81526020017f54686973204e4654206973206166746572207468652064756520646174652e0081525061187a565b662386f26fc100003410611757576117496040518060400160405280601f81526020017f54686973204e4654206973206166746572207468652064756520646174652e0081525061187a565b611752816125b6565b611796565b6117956040518060400160405280601b81526020017f596f75206e65656420746f2070617920302e30312065746865722e000000000081525061187a565b5b6117e3565b6117d96040518060400160405280602081526020017f54686973204e4654206973206265666f7265207468652064756520646174652e81525061187a565b6117e2816125b6565b5b50565b6000600560008473ffffffffffffffffffffffffffffffffffffffff1673ffffffffffffffffffffffffffffffffffffffff16815260200190815260200160002060008373ffffffffffffffffffffffffffffffffffffffff1673ffffffffffffffffffffffffffffffffffffffff16815260200190815260200160002060009054906101000a900460ff16905092915050565b6119108160405160240161188e91906134e8565b6040516020818303038152906040527f41304fac000000000000000000000000000000000000000000000000000000007bffffffffffffffffffffffffffffffffffffffffffffffffffffffff19166020820180517bffffffffffffffffffffffffffffffffffffffffffffffffffffffff838183161783525050505061285e565b50565b60007f80ac58cd000000000000000000000000000000000000000000000000000000007bffffffffffffffffffffffffffffffffffffffffffffffffffffffff1916827bffffffffffffffffffffffffffffffffffffffffffffffffffffffff191614806119de57507f5b5e139f000000000000000000000000000000000000000000000000000000007bffffffffffffffffffffffffffffffffffffffffffffffffffffffff1916827bffffffffffffffffffffffffffffffffffffffffffffffffffffffff1916145b806119ee57506119ed82612887565b5b9050919050565b600081600001549050919050565b611a1d8282604051806020016040528060008152506128f1565b5050565b611abb838383604051602401611a39939291906149dc565b6040516020818303038152906040527f1c7ec448000000000000000000000000000000000000000000000000000000007bffffffffffffffffffffffffffffffffffffffffffffffffffffffff19166020820180517bffffffffffffffffffffffffffffffffffffffffffffffffffffffff838183161783525050505061285e565b505050565b60606000808314611b06576040518060400160405280600881526020017f4163686965766564000000000000000000000000000000000000000000000000815250611b3d565b6040518060400160405280600b81526020017f496e2070726f67726573730000000000000000000000000000000000000000008152505b90506000600b8288604051602001611b5793929190614b35565b60405160208183030381529060405290506000611b7382612383565b905080604051602001611b869190614bc8565b6040516020818303038152906040529350505050949350505050565b6001816000016000828254019250508190555050565b611bc18161294c565b611c00576040517f08c379a0000000000000000000000000000000000000000000000000000000008152600401611bf7906142d1565b60405180910390fd5b50565b600033905090565b816004600083815260200190815260200160002060006101000a81548173ffffffffffffffffffffffffffffffffffffffff021916908373ffffffffffffffffffffffffffffffffffffffff160217905550808273ffffffffffffffffffffffffffffffffffffffff16611c7e83610b03565b73ffffffffffffffffffffffffffffffffffffffff167f8c5be1e5ebec7d5bd14f71427d1e84f3dd0314c0f7b2291e5b200ac8c7c3b92560405160405180910390a45050565b600080611cd083610b03565b90508073ffffffffffffffffffffffffffffffffffffffff168473ffffffffffffffffffffffffffffffffffffffff161480611d125750611d1181856117e6565b5b80611d5057508373ffffffffffffffffffffffffffffffffffffffff16611d3884610803565b73ffffffffffffffffffffffffffffffffffffffff16145b91505092915050565b8273ffffffffffffffffffffffffffffffffffffffff16611d7982610b03565b73ffffffffffffffffffffffffffffffffffffffff1614611dcf576040517f08c379a0000000000000000000000000000000000000000000000000000000008152600401611dc690614c5c565b60405180910390fd5b600073ffffffffffffffffffffffffffffffffffffffff168273ffffffffffffffffffffffffffffffffffffffff1603611e3e576040517f08c379a0000000000000000000000000000000000000000000000000000000008152600401611e3590614cee565b60405180910390fd5b611e498383836129b8565b611e54600082611c0b565b6001600360008573ffffffffffffffffffffffffffffffffffffffff1673ffffffffffffffffffffffffffffffffffffffff1681526020019081526020016000206000828254611ea49190614d0e565b925050819055506001600360008473ffffffffffffffffffffffffffffffffffffffff1673ffffffffffffffffffffffffffffffffffffffff1681526020019081526020016000206000828254611efb9190614d42565b92505081905550816002600083815260200190815260200160002060006101000a81548173ffffffffffffffffffffffffffffffffffffffff021916908373ffffffffffffffffffffffffffffffffffffffff160217905550808273ffffffffffffffffffffffffffffffffffffffff168473ffffffffffffffffffffffffffffffffffffffff167fddf252ad1be2c89b69c2b068fc378daa952ba7f163c4a11628f55a4df523b3ef60405160405180910390a4611fba838383612aca565b505050565b6120578282604051602401611fd5929190614d76565b6040516020818303038152906040527fc3b55635000000000000000000000000000000000000000000000000000000007bffffffffffffffffffffffffffffffffffffffffffffffffffffffff19166020820180517bffffffffffffffffffffffffffffffffffffffffffffffffffffffff838183161783525050505061285e565b5050565b8173ffffffffffffffffffffffffffffffffffffffff168373ffffffffffffffffffffffffffffffffffffffff16036120c9576040517f08c379a00000000000000000000000000000000000000000000000000000000081526004016120c090614df2565b60405180910390fd5b80600560008573ffffffffffffffffffffffffffffffffffffffff1673ffffffffffffffffffffffffffffffffffffffff16815260200190815260200160002060008473ffffffffffffffffffffffffffffffffffffffff1673ffffffffffffffffffffffffffffffffffffffff16815260200190815260200160002060006101000a81548160ff0219169083151502179055508173ffffffffffffffffffffffffffffffffffffffff168373ffffffffffffffffffffffffffffffffffffffff167f17307eab39ab6107e8899845ad3d59bd9653f200f220920489ca2b5937696c31836040516121ba9190613247565b60405180910390a3505050565b6121d2848484611d59565b6121de84848484612acf565b61221d576040517f08c379a000000000000000000000000000000000000000000000000000000000815260040161221490614e84565b60405180910390fd5b50505050565b60606000820361226a576040518060400160405280600181526020017f3000000000000000000000000000000000000000000000000000000000000000815250905061237e565b600082905060005b6000821461229c578080612285906143b2565b915050600a826122959190614ed3565b9150612272565b60008167ffffffffffffffff8111156122b8576122b761327d565b5b6040519080825280601f01601f1916602001820160405280156122ea5781602001600182028036833780820191505090505b5090505b60008514612377576001826123039190614d0e565b9150600a856123129190614f04565b603061231e9190614d42565b60f81b81838151811061233457612333614256565b5b60200101907effffffffffffffffffffffffffffffffffffffffffffffffffffffffffffff1916908160001a905350600a856123709190614ed3565b94506122ee565b8093505050505b919050565b6060600082519050600081036123ab5760405180602001604052806000815250915050612515565b600060036002836123bc9190614d42565b6123c69190614ed3565b60046123d29190614f35565b905060006020826123e39190614d42565b67ffffffffffffffff8111156123fc576123fb61327d565b5b6040519080825280601f01601f19166020018201604052801561242e5781602001600182028036833780820191505090505b50905060006040518060600160405280604081526020016151be604091399050600181016020830160005b868110156124d25760038101905062ffffff818a015116603f8160121c168401518060081b905060ff603f83600c1c1686015116810190508060081b905060ff603f8360061c1686015116810190508060081b905060ff603f831686015116810190508060e01b90508084526004840193505050612459565b5060038606600181146124ec57600281146124fc57612507565b613d3d60f01b6002830352612507565b603d60f81b60018303525b508484525050819450505050505b919050565b6125b28282604051602401612530929190614f77565b6040516020818303038152906040527f4b5c4277000000000000000000000000000000000000000000000000000000007bffffffffffffffffffffffffffffffffffffffffffffffffffffffff19166020820180517bffffffffffffffffffffffffffffffffffffffffffffffffffffffff838183161783525050505061285e565b5050565b6125bf81611bb8565b6000600a60008381526020019081526020016000206040518060c00160405290816000820180546125ef90613c5e565b80601f016020809104026020016040519081016040528092919081815260200182805461261b90613c5e565b80156126685780601f1061263d57610100808354040283529160200191612668565b820191906000526020600020905b81548152906001019060200180831161264b57829003601f168201915b5050505050815260200160018201805461268190613c5e565b80601f01602080910402602001604051908101604052809291908181526020018280546126ad90613c5e565b80156126fa5780601f106126cf576101008083540402835291602001916126fa565b820191906000526020600020905b8154815290600101906020018083116126dd57829003601f168201915b5050505050815260200160028201805461271390613c5e565b80601f016020809104026020016040519081016040528092919081815260200182805461273f90613c5e565b801561278c5780601f106127615761010080835404028352916020019161278c565b820191906000526020600020905b81548152906001019060200180831161276f57829003601f168201915b5050505050815260200160038201548152602001600482015481526020016005820154815250509050428160a00181815250506127db8160000151826060015183608001518460a00151611ac0565b816020018190525080600a6000848152602001908152602001600020600082015181600001908161280c9190613e3b565b5060208201518160010190816128229190613e3b565b5060408201518160020190816128389190613e3b565b50606082015181600301556080820151816004015560a082015181600501559050505050565b60008151905060006a636f6e736f6c652e6c6f679050602083016000808483855afa5050505050565b60007f01ffc9a7000000000000000000000000000000000000000000000000000000007bffffffffffffffffffffffffffffffffffffffffffffffffffffffff1916827bffffffffffffffffffffffffffffffffffffffffffffffffffffffff1916149050919050565b6128fb8383612c56565b6129086000848484612acf565b612947576040517f08c379a000000000000000000000000000000000000000000000000000000000815260040161293e90614e84565b60405180910390fd5b505050565b60008073ffffffffffffffffffffffffffffffffffffffff166002600084815260200190815260200160002060009054906101000a900473ffffffffffffffffffffffffffffffffffffffff1673ffffffffffffffffffffffffffffffffffffffff1614159050919050565b6129c3838383612e2f565b600073ffffffffffffffffffffffffffffffffffffffff168373ffffffffffffffffffffffffffffffffffffffff1603612a0557612a0081612e34565b612a44565b8173ffffffffffffffffffffffffffffffffffffffff168373ffffffffffffffffffffffffffffffffffffffff1614612a4357612a428382612e7d565b5b5b600073ffffffffffffffffffffffffffffffffffffffff168273ffffffffffffffffffffffffffffffffffffffff1603612a8657612a8181612fea565b612ac5565b8273ffffffffffffffffffffffffffffffffffffffff168273ffffffffffffffffffffffffffffffffffffffff1614612ac457612ac382826130bb565b5b5b505050565b505050565b6000612af08473ffffffffffffffffffffffffffffffffffffffff1661313a565b15612c49578373ffffffffffffffffffffffffffffffffffffffff1663150b7a02612b19611c03565b8786866040518563ffffffff1660e01b8152600401612b3b9493929190615003565b6020604051808303816000875af1925050508015612b7757506040513d601f19601f82011682018060405250810190612b749190615064565b60015b612bf9573d8060008114612ba7576040519150601f19603f3d011682016040523d82523d6000602084013e612bac565b606091505b506000815103612bf1576040517f08c379a0000000000000000000000000000000000000000000000000000000008152600401612be890614e84565b60405180910390fd5b805181602001fd5b63150b7a0260e01b7bffffffffffffffffffffffffffffffffffffffffffffffffffffffff1916817bffffffffffffffffffffffffffffffffffffffffffffffffffffffff191614915050612c4e565b600190505b949350505050565b600073ffffffffffffffffffffffffffffffffffffffff168273ffffffffffffffffffffffffffffffffffffffff1603612cc5576040517f08c379a0000000000000000000000000000000000000000000000000000000008152600401612cbc906150dd565b60405180910390fd5b612cce8161294c565b15612d0e576040517f08c379a0000000000000000000000000000000000000000000000000000000008152600401612d0590615149565b60405180910390fd5b612d1a600083836129b8565b6001600360008473ffffffffffffffffffffffffffffffffffffffff1673ffffffffffffffffffffffffffffffffffffffff1681526020019081526020016000206000828254612d6a9190614d42565b92505081905550816002600083815260200190815260200160002060006101000a81548173ffffffffffffffffffffffffffffffffffffffff021916908373ffffffffffffffffffffffffffffffffffffffff160217905550808273ffffffffffffffffffffffffffffffffffffffff16600073ffffffffffffffffffffffffffffffffffffffff167fddf252ad1be2c89b69c2b068fc378daa952ba7f163c4a11628f55a4df523b3ef60405160405180910390a4612e2b60008383612aca565b5050565b505050565b6008805490506009600083815260200190815260200160002081905550600881908060018154018082558091505060019003906000526020600020016000909190919091505550565b60006001612e8a84610bb4565b612e949190614d0e565b9050600060076000848152602001908152602001600020549050818114612f79576000600660008673ffffffffffffffffffffffffffffffffffffffff1673ffffffffffffffffffffffffffffffffffffffff168152602001908152602001600020600084815260200190815260200160002054905080600660008773ffffffffffffffffffffffffffffffffffffffff1673ffffffffffffffffffffffffffffffffffffffff168152602001908152602001600020600084815260200190815260200160002081905550816007600083815260200190815260200160002081905550505b6007600084815260200190815260200160002060009055600660008573ffffffffffffffffffffffffffffffffffffffff1673ffffffffffffffffffffffffffffffffffffffff16815260200190815260200160002060008381526020019081526020016000206000905550505050565b60006001600880549050612ffe9190614d0e565b905060006009600084815260200190815260200160002054905060006008838154811061302e5761302d614256565b5b9060005260206000200154905080600883815481106130505761304f614256565b5b90600052602060002001819055508160096000838152602001908152602001600020819055506009600085815260200190815260200160002060009055600880548061309f5761309e615169565b5b6001900381819060005260206000200160009055905550505050565b60006130c683610bb4565b905081600660008573ffffffffffffffffffffffffffffffffffffffff1673ffffffffffffffffffffffffffffffffffffffff168152602001908152602001600020600083815260200190815260200160002081905550806007600084815260200190815260200160002081905550505050565b6000808273ffffffffffffffffffffffffffffffffffffffff163b119050919050565b6040518060c001604052806060815260200160608152602001606081526020016000815260200160008152602001600081525090565b6000604051905090565b600080fd5b600080fd5b60007fffffffff0000000000000000000000000000000000000000000000000000000082169050919050565b6131dc816131a7565b81146131e757600080fd5b50565b6000813590506131f9816131d3565b92915050565b6000602082840312156132155761321461319d565b5b6000613223848285016131ea565b91505092915050565b60008115159050919050565b6132418161322c565b82525050565b600060208201905061325c6000830184613238565b92915050565b600080fd5b600080fd5b6000601f19601f8301169050919050565b7f4e487b7100000000000000000000000000000000000000000000000000000000600052604160045260246000fd5b6132b58261326c565b810181811067ffffffffffffffff821117156132d4576132d361327d565b5b80604052505050565b60006132e7613193565b90506132f382826132ac565b919050565b600067ffffffffffffffff8211156133135761331261327d565b5b61331c8261326c565b9050602081019050919050565b82818337600083830152505050565b600061334b613346846132f8565b6132dd565b90508281526020810184848401111561336757613366613267565b5b613372848285613329565b509392505050565b600082601f83011261338f5761338e613262565b5b813561339f848260208601613338565b91505092915050565b6000819050919050565b6133bb816133a8565b81146133c657600080fd5b50565b6000813590506133d8816133b2565b92915050565b6000806000606084860312156133f7576133f661319d565b5b600084013567ffffffffffffffff811115613415576134146131a2565b5b6134218682870161337a565b935050602084013567ffffffffffffffff811115613442576134416131a2565b5b61344e8682870161337a565b925050604061345f868287016133c9565b9150509250925092565b600081519050919050565b600082825260208201905092915050565b60005b838110156134a3578082015181840152602081019050613488565b60008484015250505050565b60006134ba82613469565b6134c48185613474565b93506134d4818560208601613485565b6134dd8161326c565b840191505092915050565b6000602082019050818103600083015261350281846134af565b905092915050565b6000602082840312156135205761351f61319d565b5b600061352e848285016133c9565b91505092915050565b600073ffffffffffffffffffffffffffffffffffffffff82169050919050565b600061356282613537565b9050919050565b61357281613557565b82525050565b600060208201905061358d6000830184613569565b92915050565b61359c81613557565b81146135a757600080fd5b50565b6000813590506135b981613593565b92915050565b600080604083850312156135d6576135d561319d565b5b60006135e4858286016135aa565b92505060206135f5858286016133c9565b9150509250929050565b613608816133a8565b82525050565b600060208201905061362360008301846135ff565b92915050565b6000806000606084860312156136425761364161319d565b5b6000613650868287016135aa565b9350506020613661868287016135aa565b9250506040613672868287016133c9565b9150509250925092565b6000602082840312156136925761369161319d565b5b60006136a0848285016135aa565b91505092915050565b6136b28161322c565b81146136bd57600080fd5b50565b6000813590506136cf816136a9565b92915050565b600080604083850312156136ec576136eb61319d565b5b60006136fa858286016135aa565b925050602061370b858286016136c0565b9150509250929050565b600067ffffffffffffffff8211156137305761372f61327d565b5b6137398261326c565b9050602081019050919050565b600061375961375484613715565b6132dd565b90508281526020810184848401111561377557613774613267565b5b613780848285613329565b509392505050565b600082601f83011261379d5761379c613262565b5b81356137ad848260208601613746565b91505092915050565b600080600080608085870312156137d0576137cf61319d565b5b60006137de878288016135aa565b94505060206137ef878288016135aa565b9350506040613800878288016133c9565b925050606085013567ffffffffffffffff811115613821576138206131a2565b5b61382d87828801613788565b91505092959194509250565b600067ffffffffffffffff8211156138545761385361327d565b5b602082029050602081019050919050565b600080fd5b600061387d61387884613839565b6132dd565b905080838252602082019050602084028301858111156138a05761389f613865565b5b835b818110156138c957806138b588826133c9565b8452602084019350506020810190506138a2565b5050509392505050565b600082601f8301126138e8576138e7613262565b5b81356138f884826020860161386a565b91505092915050565b6000602082840312156139175761391661319d565b5b600082013567ffffffffffffffff811115613935576139346131a2565b5b613941848285016138d3565b91505092915050565b600081519050919050565b600082825260208201905092915050565b6000819050602082019050919050565b600082825260208201905092915050565b600061399282613469565b61399c8185613976565b93506139ac818560208601613485565b6139b58161326c565b840191505092915050565b6139c9816133a8565b82525050565b600060c08301600083015184820360008601526139ec8282613987565b91505060208301518482036020860152613a068282613987565b91505060408301518482036040860152613a208282613987565b9150506060830151613a3560608601826139c0565b506080830151613a4860808601826139c0565b5060a0830151613a5b60a08601826139c0565b508091505092915050565b6000613a7283836139cf565b905092915050565b6000602082019050919050565b6000613a928261394a565b613a9c8185613955565b935083602082028501613aae85613966565b8060005b85811015613aea5784840389528151613acb8582613a66565b9450613ad683613a7a565b925060208a01995050600181019050613ab2565b50829750879550505050505092915050565b60006020820190508181036000830152613b168184613a87565b905092915050565b600081519050919050565b600082825260208201905092915050565b6000819050602082019050919050565b6000613b5683836139c0565b60208301905092915050565b6000602082019050919050565b6000613b7a82613b1e565b613b848185613b29565b9350613b8f83613b3a565b8060005b83811015613bc0578151613ba78882613b4a565b9750613bb283613b62565b925050600181019050613b93565b5085935050505092915050565b60006020820190508181036000830152613be78184613b6f565b905092915050565b60008060408385031215613c0657613c0561319d565b5b6000613c14858286016135aa565b9250506020613c25858286016135aa565b9150509250929050565b7f4e487b7100000000000000000000000000000000000000000000000000000000600052602260045260246000fd5b60006002820490506001821680613c7657607f821691505b602082108103613c8957613c88613c2f565b5b50919050565b60008190508160005260206000209050919050565b60006020601f8301049050919050565b600082821b905092915050565b600060088302613cf17fffffffffffffffffffffffffffffffffffffffffffffffffffffffffffffffff82613cb4565b613cfb8683613cb4565b95508019841693508086168417925050509392505050565b6000819050919050565b6000613d38613d33613d2e846133a8565b613d13565b6133a8565b9050919050565b6000819050919050565b613d5283613d1d565b613d66613d5e82613d3f565b848454613cc1565b825550505050565b600090565b613d7b613d6e565b613d86818484613d49565b505050565b5b81811015613daa57613d9f600082613d73565b600181019050613d8c565b5050565b601f821115613def57613dc081613c8f565b613dc984613ca4565b81016020851015613dd8578190505b613dec613de485613ca4565b830182613d8b565b50505b505050565b600082821c905092915050565b6000613e1260001984600802613df4565b1980831691505092915050565b6000613e2b8383613e01565b9150826002028217905092915050565b613e4482613469565b67ffffffffffffffff811115613e5d57613e5c61327d565b5b613e678254613c5e565b613e72828285613dae565b600060209050601f831160018114613ea55760008415613e93578287015190505b613e9d8582613e1f565b865550613f05565b601f198416613eb386613c8f565b60005b82811015613edb57848901518255600182019150602085019450602081019050613eb6565b86831015613ef85784890151613ef4601f891682613e01565b8355505b6001600288020188555050505b505050505050565b600060c082019050613f226000830189613569565b613f2f60208301886135ff565b8181036040830152613f4181876134af565b90508181036060830152613f5581866134af565b9050613f6460808301856135ff565b613f7160a08301846135ff565b979650505050505050565b7f4552433732313a20617070726f76616c20746f2063757272656e74206f776e6560008201527f7200000000000000000000000000000000000000000000000000000000000000602082015250565b6000613fd8602183613474565b9150613fe382613f7c565b604082019050919050565b6000602082019050818103600083015261400781613fcb565b9050919050565b7f4552433732313a20617070726f76652063616c6c6572206973206e6f7420746f60008201527f6b656e206f776e6572206e6f7220617070726f76656420666f7220616c6c0000602082015250565b600061406a603e83613474565b91506140758261400e565b604082019050919050565b600060208201905081810360008301526140998161405d565b9050919050565b7f4552433732313a2063616c6c6572206973206e6f7420746f6b656e206f776e6560008201527f72206e6f7220617070726f766564000000000000000000000000000000000000602082015250565b60006140fc602e83613474565b9150614107826140a0565b604082019050919050565b6000602082019050818103600083015261412b816140ef565b9050919050565b7f455243373231456e756d657261626c653a206f776e657220696e646578206f7560008201527f74206f6620626f756e6473000000000000000000000000000000000000000000602082015250565b600061418e602b83613474565b915061419982614132565b604082019050919050565b600060208201905081810360008301526141bd81614181565b9050919050565b7f455243373231456e756d657261626c653a20676c6f62616c20696e646578206f60008201527f7574206f6620626f756e64730000000000000000000000000000000000000000602082015250565b6000614220602c83613474565b915061422b826141c4565b604082019050919050565b6000602082019050818103600083015261424f81614213565b9050919050565b7f4e487b7100000000000000000000000000000000000000000000000000000000600052603260045260246000fd5b7f4552433732313a20696e76616c696420746f6b656e2049440000000000000000600082015250565b60006142bb601883613474565b91506142c682614285565b602082019050919050565b600060208201905081810360008301526142ea816142ae565b9050919050565b7f4552433732313a2061646472657373207a65726f206973206e6f74206120766160008201527f6c6964206f776e65720000000000000000000000000000000000000000000000602082015250565b600061434d602983613474565b9150614358826142f1565b604082019050919050565b6000602082019050818103600083015261437c81614340565b9050919050565b7f4e487b7100000000000000000000000000000000000000000000000000000000600052601160045260246000fd5b60006143bd826133a8565b91507fffffffffffffffffffffffffffffffffffffffffffffffffffffffffffffffff82036143ef576143ee614383565b5b600182019050919050565b600081905092915050565b7f7b226e616d65223a000000000000000000000000000000000000000000000000600082015250565b600061443b6008836143fa565b915061444682614405565b600882019050919050565b7f2200000000000000000000000000000000000000000000000000000000000000600082015250565b60006144876001836143fa565b915061449282614451565b600182019050919050565b60006144a882613469565b6144b281856143fa565b93506144c2818560208601613485565b80840191505092915050565b7f222c000000000000000000000000000000000000000000000000000000000000600082015250565b60006145046002836143fa565b915061450f826144ce565b600282019050919050565b7f226465736372697074696f6e223a000000000000000000000000000000000000600082015250565b6000614550600e836143fa565b915061455b8261451a565b600e82019050919050565b7f22696d616765223a202200000000000000000000000000000000000000000000600082015250565b600061459c600a836143fa565b91506145a782614566565b600a82019050919050565b7f2261747472696275746573223a205b0000000000000000000000000000000000600082015250565b60006145e8600f836143fa565b91506145f3826145b2565b600f82019050919050565b7f7b22646973706c61795f74797065223a202264617465222c202274726169745f60008201527f74797065223a2022637265617465645f6174222c202276616c7565223a202200602082015250565b600061465a603f836143fa565b9150614665826145fe565b603f82019050919050565b7f227d2c0000000000000000000000000000000000000000000000000000000000600082015250565b60006146a66003836143fa565b91506146b182614670565b600382019050919050565b7f7b22646973706c61795f74797065223a202264617465222c202274726169745f60008201527f74797065223a20226475655f64617465222c202276616c7565223a2022000000602082015250565b6000614718603d836143fa565b9150614723826146bc565b603d82019050919050565b7f227d000000000000000000000000000000000000000000000000000000000000600082015250565b60006147646002836143fa565b915061476f8261472e565b600282019050919050565b7f5d00000000000000000000000000000000000000000000000000000000000000600082015250565b60006147b06001836143fa565b91506147bb8261477a565b600182019050919050565b7f7d00000000000000000000000000000000000000000000000000000000000000600082015250565b60006147fc6001836143fa565b9150614807826147c6565b600182019050919050565b600061481d8261442e565b91506148288261447a565b9150614834828861449d565b915061483f826144f7565b915061484a82614543565b91506148558261447a565b9150614861828761449d565b915061486c826144f7565b91506148778261458f565b9150614883828661449d565b915061488e826144f7565b9150614899826145db565b91506148a48261464d565b91506148b0828561449d565b91506148bb82614699565b91506148c68261470b565b91506148d2828461449d565b91506148dd82614757565b91506148e8826147a3565b91506148f3826147ef565b91508190509695505050505050565b7f646174613a6170706c69636174696f6e2f6a736f6e3b6261736536342c000000600082015250565b6000614938601d836143fa565b915061494382614902565b601d82019050919050565b60006149598261492b565b9150614965828461449d565b915081905092915050565b7f596f7520617265206e6f74206f776e6572206f662074686973204e46542e0000600082015250565b60006149a6601e83613474565b91506149b182614970565b602082019050919050565b600060208201905081810360008301526149d581614999565b9050919050565b600060608201905081810360008301526149f681866134af565b9050614a0560208301856135ff565b614a126040830184613569565b949350505050565b60008154614a2781613c5e565b614a3181866143fa565b94506001821660008114614a4c5760018114614a6157614a94565b60ff1983168652811515820286019350614a94565b614a6a85613c8f565b60005b83811015614a8c57815481890152600182019150602081019050614a6d565b838801955050505b50505092915050565b7f2000000000000000000000000000000000000000000000000000000000000000600082015250565b6000614ad36001836143fa565b9150614ade82614a9d565b600182019050919050565b7f3c2f746578743e3c2f7376673e00000000000000000000000000000000000000600082015250565b6000614b1f600d836143fa565b9150614b2a82614ae9565b600d82019050919050565b6000614b418286614a1a565b9150614b4d828561449d565b9150614b5882614ac6565b9150614b64828461449d565b9150614b6f82614b12565b9150819050949350505050565b7f646174613a696d6167652f7376672b786d6c3b6261736536342c000000000000600082015250565b6000614bb2601a836143fa565b9150614bbd82614b7c565b601a82019050919050565b6000614bd382614ba5565b9150614bdf828461449d565b915081905092915050565b7f4552433732313a207472616e736665722066726f6d20696e636f72726563742060008201527f6f776e6572000000000000000000000000000000000000000000000000000000602082015250565b6000614c46602583613474565b9150614c5182614bea565b604082019050919050565b60006020820190508181036000830152614c7581614c39565b9050919050565b7f4552433732313a207472616e7366657220746f20746865207a65726f2061646460008201527f7265737300000000000000000000000000000000000000000000000000000000602082015250565b6000614cd8602483613474565b9150614ce382614c7c565b604082019050919050565b60006020820190508181036000830152614d0781614ccb565b9050919050565b6000614d19826133a8565b9150614d24836133a8565b9250828203905081811115614d3c57614d3b614383565b5b92915050565b6000614d4d826133a8565b9150614d58836133a8565b9250828201905080821115614d7057614d6f614383565b5b92915050565b60006040820190508181036000830152614d9081856134af565b9050614d9f6020830184613238565b9392505050565b7f4552433732313a20617070726f766520746f2063616c6c657200000000000000600082015250565b6000614ddc601983613474565b9150614de782614da6565b602082019050919050565b60006020820190508181036000830152614e0b81614dcf565b9050919050565b7f4552433732313a207472616e7366657220746f206e6f6e20455243373231526560008201527f63656976657220696d706c656d656e7465720000000000000000000000000000602082015250565b6000614e6e603283613474565b9150614e7982614e12565b604082019050919050565b60006020820190508181036000830152614e9d81614e61565b9050919050565b7f4e487b7100000000000000000000000000000000000000000000000000000000600052601260045260246000fd5b6000614ede826133a8565b9150614ee9836133a8565b925082614ef957614ef8614ea4565b5b828204905092915050565b6000614f0f826133a8565b9150614f1a836133a8565b925082614f2a57614f29614ea4565b5b828206905092915050565b6000614f40826133a8565b9150614f4b836133a8565b9250828202614f59816133a8565b91508282048414831517614f7057614f6f614383565b5b5092915050565b60006040820190508181036000830152614f9181856134af565b90508181036020830152614fa581846134af565b90509392505050565b600081519050919050565b600082825260208201905092915050565b6000614fd582614fae565b614fdf8185614fb9565b9350614fef818560208601613485565b614ff88161326c565b840191505092915050565b60006080820190506150186000830187613569565b6150256020830186613569565b61503260408301856135ff565b81810360608301526150448184614fca565b905095945050505050565b60008151905061505e816131d3565b92915050565b60006020828403121561507a5761507961319d565b5b60006150888482850161504f565b91505092915050565b7f4552433732313a206d696e7420746f20746865207a65726f2061646472657373600082015250565b60006150c7602083613474565b91506150d282615091565b602082019050919050565b600060208201905081810360008301526150f6816150ba565b9050919050565b7f4552433732313a20746f6b656e20616c7265616479206d696e74656400000000600082015250565b6000615133601c83613474565b915061513e826150fd565b602082019050919050565b6000602082019050818103600083015261516281615126565b9050919050565b7f4e487b7100000000000000000000000000000000000000000000000000000000600052603160045260246000fdfe416e204e465420772f20494420257320686173206265656e206d696e74656420746f2025734142434445464748494a4b4c4d4e4f505152535455565758595a6162636465666768696a6b6c6d6e6f707172737475767778797a303132333435363738392b2fa2646970667358221220eee3a78b494f82b4eb39ba35092911554fcbbaa9169e6b144bdd76d872a45e1964736f6c634300081100333c73766720786d6c6e733d27687474703a2f2f7777772e77332e6f72672f323030302f73766727207072657365727665417370656374526174696f3d27784d696e594d696e206d656574272076696577426f783d273020302033353020333530273e3c7374796c653e2e62617365207b2066696c6c3a2077686974653b20666f6e742d66616d696c793a2073657269663b20666f6e742d73697a653a20323470783b207d3c2f7374796c653e3c726563742077696474683d273130302527206865696768743d2731303025272066696c6c3d27626c61636b27202f3e3c7465787420783d273530252720793d273530252720636c6173733d27626173652720646f6d696e616e742d626173656c696e653d276d6964646c652720746578742d616e63686f723d276d6964646c65273e",
  "linkReferences": {},
  "deployedLinkReferences": {}
}