{
  "_format": "hh-sol-artifact-1",
  "contractName": "GritNFT",
  "sourceName": "contracts/GritNFT.sol",
  "abi": [
    {
      "inputs": [],
      "stateMutability": "nonpayable",
      "type": "constructor"
    },
    {
      "anonymous": false,
      "inputs": [
        {
          "indexed": true,
          "internalType": "address",
          "name": "owner",
          "type": "address"
        },
        {
          "indexed": true,
          "internalType": "address",
          "name": "approved",
          "type": "address"
        },
        {
          "indexed": true,
          "internalType": "uint256",
          "name": "tokenId",
          "type": "uint256"
        }
      ],
      "name": "Approval",
      "type": "event"
    },
    {
      "anonymous": false,
      "inputs": [
        {
          "indexed": true,
          "internalType": "address",
          "name": "owner",
          "type": "address"
        },
        {
          "indexed": true,
          "internalType": "address",
          "name": "operator",
          "type": "address"
        },
        {
          "indexed": false,
          "internalType": "bool",
          "name": "approved",
          "type": "bool"
        }
      ],
      "name": "ApprovalForAll",
      "type": "event"
    },
    {
      "anonymous": false,
      "inputs": [
        {
          "indexed": false,
          "internalType": "address",
          "name": "sender",
          "type": "address"
        },
        {
          "indexed": false,
          "internalType": "uint256",
          "name": "tokenId",
          "type": "uint256"
        }
      ],
      "name": "NewNFTMinted",
      "type": "event"
    },
    {
      "anonymous": false,
      "inputs": [
        {
          "indexed": true,
          "internalType": "address",
          "name": "from",
          "type": "address"
        },
        {
          "indexed": true,
          "internalType": "address",
          "name": "to",
          "type": "address"
        },
        {
          "indexed": true,
          "internalType": "uint256",
          "name": "tokenId",
          "type": "uint256"
        }
      ],
      "name": "Transfer",
      "type": "event"
    },
    {
      "inputs": [
        {
          "internalType": "address",
          "name": "to",
          "type": "address"
        },
        {
          "internalType": "uint256",
          "name": "tokenId",
          "type": "uint256"
        }
      ],
      "name": "approve",
      "outputs": [],
      "stateMutability": "nonpayable",
      "type": "function"
    },
    {
      "inputs": [
        {
          "internalType": "address",
          "name": "owner",
          "type": "address"
        }
      ],
      "name": "balanceOf",
      "outputs": [
        {
          "internalType": "uint256",
          "name": "",
          "type": "uint256"
        }
      ],
      "stateMutability": "view",
      "type": "function"
    },
    {
      "inputs": [
        {
          "internalType": "uint256",
          "name": "tokenId",
          "type": "uint256"
        }
      ],
      "name": "getApproved",
      "outputs": [
        {
          "internalType": "address",
          "name": "",
          "type": "address"
        }
      ],
      "stateMutability": "view",
      "type": "function"
    },
    {
      "inputs": [
        {
          "internalType": "address",
          "name": "owner",
          "type": "address"
        },
        {
          "internalType": "address",
          "name": "operator",
          "type": "address"
        }
      ],
      "name": "isApprovedForAll",
      "outputs": [
        {
          "internalType": "bool",
          "name": "",
          "type": "bool"
        }
      ],
      "stateMutability": "view",
      "type": "function"
    },
    {
      "inputs": [
        {
          "internalType": "uint256",
          "name": "tokenId",
          "type": "uint256"
        }
      ],
      "name": "isExpiredOf",
      "outputs": [
        {
          "internalType": "bool",
          "name": "",
          "type": "bool"
        }
      ],
      "stateMutability": "view",
      "type": "function"
    },
    {
      "inputs": [
        {
          "internalType": "uint256",
          "name": "tokenId",
          "type": "uint256"
        }
      ],
      "name": "isOwnerOf",
      "outputs": [
        {
          "internalType": "bool",
          "name": "",
          "type": "bool"
        }
      ],
      "stateMutability": "view",
      "type": "function"
    },
    {
      "inputs": [
        {
          "internalType": "string",
          "name": "name",
          "type": "string"
        },
        {
          "internalType": "string",
          "name": "description",
          "type": "string"
        },
        {
          "internalType": "string",
          "name": "imageURI",
          "type": "string"
        },
        {
          "internalType": "uint256",
          "name": "dueDate",
          "type": "uint256"
        }
      ],
      "name": "makeNFT",
      "outputs": [],
      "stateMutability": "nonpayable",
      "type": "function"
    },
    {
      "inputs": [],
      "name": "name",
      "outputs": [
        {
          "internalType": "string",
          "name": "",
          "type": "string"
        }
      ],
      "stateMutability": "view",
      "type": "function"
    },
    {
      "inputs": [
        {
          "internalType": "uint256",
          "name": "tokenId",
          "type": "uint256"
        }
      ],
      "name": "ownerOf",
      "outputs": [
        {
          "internalType": "address",
          "name": "",
          "type": "address"
        }
      ],
      "stateMutability": "view",
      "type": "function"
    },
    {
      "inputs": [
        {
          "internalType": "address",
          "name": "from",
          "type": "address"
        },
        {
          "internalType": "address",
          "name": "to",
          "type": "address"
        },
        {
          "internalType": "uint256",
          "name": "tokenId",
          "type": "uint256"
        }
      ],
      "name": "safeTransferFrom",
      "outputs": [],
      "stateMutability": "nonpayable",
      "type": "function"
    },
    {
      "inputs": [
        {
          "internalType": "address",
          "name": "from",
          "type": "address"
        },
        {
          "internalType": "address",
          "name": "to",
          "type": "address"
        },
        {
          "internalType": "uint256",
          "name": "tokenId",
          "type": "uint256"
        },
        {
          "internalType": "bytes",
          "name": "data",
          "type": "bytes"
        }
      ],
      "name": "safeTransferFrom",
      "outputs": [],
      "stateMutability": "nonpayable",
      "type": "function"
    },
    {
      "inputs": [
        {
          "internalType": "address",
          "name": "operator",
          "type": "address"
        },
        {
          "internalType": "bool",
          "name": "approved",
          "type": "bool"
        }
      ],
      "name": "setApprovalForAll",
      "outputs": [],
      "stateMutability": "nonpayable",
      "type": "function"
    },
    {
      "inputs": [
        {
          "internalType": "bytes4",
          "name": "interfaceId",
          "type": "bytes4"
        }
      ],
      "name": "supportsInterface",
      "outputs": [
        {
          "internalType": "bool",
          "name": "",
          "type": "bool"
        }
      ],
      "stateMutability": "view",
      "type": "function"
    },
    {
      "inputs": [],
      "name": "symbol",
      "outputs": [
        {
          "internalType": "string",
          "name": "",
          "type": "string"
        }
      ],
      "stateMutability": "view",
      "type": "function"
    },
    {
      "inputs": [
        {
          "internalType": "uint256",
          "name": "tokenId",
          "type": "uint256"
        }
      ],
      "name": "tokenURI",
      "outputs": [
        {
          "internalType": "string",
          "name": "",
          "type": "string"
        }
      ],
      "stateMutability": "view",
      "type": "function"
    },
    {
      "inputs": [
        {
          "internalType": "address",
          "name": "from",
          "type": "address"
        },
        {
          "internalType": "address",
          "name": "to",
          "type": "address"
        },
        {
          "internalType": "uint256",
          "name": "tokenId",
          "type": "uint256"
        }
      ],
      "name": "transferFrom",
      "outputs": [],
      "stateMutability": "nonpayable",
      "type": "function"
    },
    {
      "inputs": [
        {
          "internalType": "uint256",
          "name": "tokenId",
          "type": "uint256"
        },
        {
          "internalType": "string",
          "name": "imageURI",
          "type": "string"
        }
      ],
      "name": "updateNFTOf",
      "outputs": [],
      "stateMutability": "payable",
      "type": "function"
    }
  ],
  "bytecode": "0x60806040523480156200001157600080fd5b506040518060400160405280600781526020017f477269744e4654000000000000000000000000000000000000000000000000008152506040518060400160405280600481526020017f477269740000000000000000000000000000000000000000000000000000000081525081600090816200008f91906200043b565b508060019081620000a191906200043b565b505050620000ef6040518060400160405280601981526020017f5468697320697320477269744e465420636f6e74726163742e00000000000000815250620000f560201b620012d01760201c565b620005d5565b62000195816040516024016200010c9190620005b1565b6040516020818303038152906040527f41304fac000000000000000000000000000000000000000000000000000000007bffffffffffffffffffffffffffffffffffffffffffffffffffffffff19166020820180517bffffffffffffffffffffffffffffffffffffffffffffffffffffffff83818316178352505050506200019860201b60201c565b50565b60008151905060006a636f6e736f6c652e6c6f679050602083016000808483855afa5050505050565b600081519050919050565b7f4e487b7100000000000000000000000000000000000000000000000000000000600052604160045260246000fd5b7f4e487b7100000000000000000000000000000000000000000000000000000000600052602260045260246000fd5b600060028204905060018216806200024357607f821691505b602082108103620002595762000258620001fb565b5b50919050565b60008190508160005260206000209050919050565b60006020601f8301049050919050565b600082821b905092915050565b600060088302620002c37fffffffffffffffffffffffffffffffffffffffffffffffffffffffffffffffff8262000284565b620002cf868362000284565b95508019841693508086168417925050509392505050565b6000819050919050565b6000819050919050565b60006200031c620003166200031084620002e7565b620002f1565b620002e7565b9050919050565b6000819050919050565b6200033883620002fb565b62000350620003478262000323565b84845462000291565b825550505050565b600090565b6200036762000358565b620003748184846200032d565b505050565b5b818110156200039c57620003906000826200035d565b6001810190506200037a565b5050565b601f821115620003eb57620003b5816200025f565b620003c08462000274565b81016020851015620003d0578190505b620003e8620003df8562000274565b83018262000379565b50505b505050565b600082821c905092915050565b60006200041060001984600802620003f0565b1980831691505092915050565b60006200042b8383620003fd565b9150826002028217905092915050565b6200044682620001c1565b67ffffffffffffffff811115620004625762000461620001cc565b5b6200046e82546200022a565b6200047b828285620003a0565b600060209050601f831160018114620004b357600084156200049e578287015190505b620004aa85826200041d565b8655506200051a565b601f198416620004c3866200025f565b60005b82811015620004ed57848901518255600182019150602085019450602081019050620004c6565b868310156200050d578489015162000509601f891682620003fd565b8355505b6001600288020188555050505b505050505050565b600082825260208201905092915050565b60005b838110156200055357808201518184015260208101905062000536565b60008484015250505050565b6000601f19601f8301169050919050565b60006200057d82620001c1565b62000589818562000522565b93506200059b81856020860162000533565b620005a6816200055f565b840191505092915050565b60006020820190508181036000830152620005cd818462000570565b905092915050565b613fb780620005e56000396000f3fe6080604052600436106100fe5760003560e01c806370a0823111610095578063a22cb46511610064578063a22cb4651461034a578063ab6520f414610373578063b88d4fde146103b0578063c87b56dd146103d9578063e985e9c514610416576100fe565b806370a082311461027c57806374502a1d146102b957806375adc730146102e257806395d89b411461031f576100fe565b80631a4afafb116100d15780631a4afafb146101d157806323b872dd146101ed57806342842e0e146102165780636352211e1461023f576100fe565b806301ffc9a71461010357806306fdde0314610140578063081812fc1461016b578063095ea7b3146101a8575b600080fd5b34801561010f57600080fd5b5061012a6004803603810190610125919061260b565b610453565b6040516101379190612653565b60405180910390f35b34801561014c57600080fd5b50610155610535565b60405161016291906126fe565b60405180910390f35b34801561017757600080fd5b50610192600480360381019061018d9190612756565b6105c7565b60405161019f91906127c4565b60405180910390f35b3480156101b457600080fd5b506101cf60048036038101906101ca919061280b565b61060d565b005b6101eb60048036038101906101e69190612980565b610724565b005b3480156101f957600080fd5b50610214600480360381019061020f91906129dc565b6108a4565b005b34801561022257600080fd5b5061023d600480360381019061023891906129dc565b610904565b005b34801561024b57600080fd5b5061026660048036038101906102619190612756565b610924565b60405161027391906127c4565b60405180910390f35b34801561028857600080fd5b506102a3600480360381019061029e9190612a2f565b6109d5565b6040516102b09190612a6b565b60405180910390f35b3480156102c557600080fd5b506102e060048036038101906102db9190612a86565b610a8c565b005b3480156102ee57600080fd5b5061030960048036038101906103049190612756565b610bb0565b6040516103169190612653565b60405180910390f35b34801561032b57600080fd5b50610334610df1565b60405161034191906126fe565b60405180910390f35b34801561035657600080fd5b50610371600480360381019061036c9190612b6d565b610e83565b005b34801561037f57600080fd5b5061039a60048036038101906103959190612756565b610e99565b6040516103a79190612653565b60405180910390f35b3480156103bc57600080fd5b506103d760048036038101906103d29190612c4e565b610f1d565b005b3480156103e557600080fd5b5061040060048036038101906103fb9190612756565b610f7f565b60405161040d91906126fe565b60405180910390f35b34801561042257600080fd5b5061043d60048036038101906104389190612cd1565b61123c565b60405161044a9190612653565b60405180910390f35b60007f80ac58cd000000000000000000000000000000000000000000000000000000007bffffffffffffffffffffffffffffffffffffffffffffffffffffffff1916827bffffffffffffffffffffffffffffffffffffffffffffffffffffffff1916148061051e57507f5b5e139f000000000000000000000000000000000000000000000000000000007bffffffffffffffffffffffffffffffffffffffffffffffffffffffff1916827bffffffffffffffffffffffffffffffffffffffffffffffffffffffff1916145b8061052e575061052d82611369565b5b9050919050565b60606000805461054490612d40565b80601f016020809104026020016040519081016040528092919081815260200182805461057090612d40565b80156105bd5780601f10610592576101008083540402835291602001916105bd565b820191906000526020600020905b8154815290600101906020018083116105a057829003601f168201915b5050505050905090565b60006105d2826113d3565b6004600083815260200190815260200160002060009054906101000a900473ffffffffffffffffffffffffffffffffffffffff169050919050565b600061061882610924565b90508073ffffffffffffffffffffffffffffffffffffffff168373ffffffffffffffffffffffffffffffffffffffff1603610688576040517f08c379a000000000000000000000000000000000000000000000000000000000815260040161067f90612de3565b60405180910390fd5b8073ffffffffffffffffffffffffffffffffffffffff166106a761141e565b73ffffffffffffffffffffffffffffffffffffffff1614806106d657506106d5816106d061141e565b61123c565b5b610715576040517f08c379a000000000000000000000000000000000000000000000000000000000815260040161070c90612e75565b60405180910390fd5b61071f8383611426565b505050565b61072d82610e99565b61076c576040517f08c379a000000000000000000000000000000000000000000000000000000000815260040161076390612ee1565b60405180910390fd5b61077582610bb0565b156107c7576107b86040518060400160405280602081526020017f54686973204e4654206973206265666f7265207468652064756520646174652e8152506112d0565b6107c282826114df565b6108a0565b6108056040518060400160405280601f81526020017f54686973204e4654206973206166746572207468652064756520646174652e008152506112d0565b662386f26fc100003410610860576108516040518060400160405280601f81526020017f54686973204e4654206973206166746572207468652064756520646174652e008152506112d0565b61085b82826114df565b61089f565b61089e6040518060400160405280601b81526020017f596f75206e65656420746f2070617920302e30312065746865722e00000000008152506112d0565b5b5b5050565b6108b56108af61141e565b8261174f565b6108f4576040517f08c379a00000000000000000000000000000000000000000000000000000000081526004016108eb90612f73565b60405180910390fd5b6108ff8383836117e4565b505050565b61091f83838360405180602001604052806000815250610f1d565b505050565b6000806002600084815260200190815260200160002060009054906101000a900473ffffffffffffffffffffffffffffffffffffffff169050600073ffffffffffffffffffffffffffffffffffffffff168173ffffffffffffffffffffffffffffffffffffffff16036109cc576040517f08c379a00000000000000000000000000000000000000000000000000000000081526004016109c390612fdf565b60405180910390fd5b80915050919050565b60008073ffffffffffffffffffffffffffffffffffffffff168273ffffffffffffffffffffffffffffffffffffffff1603610a45576040517f08c379a0000000000000000000000000000000000000000000000000000000008152600401610a3c90613071565b60405180910390fd5b600360008373ffffffffffffffffffffffffffffffffffffffff1673ffffffffffffffffffffffffffffffffffffffff168152602001908152602001600020549050919050565b6000610a986007611a4a565b90506000429050610aa93383611a58565b610acc604051806060016040528060258152602001613f1d602591398333611a76565b60006040518060a0016040528088815260200186815260200187815260200183815260200185815250905080600660008581526020019081526020016000206000820151816000019081610b20919061323d565b506020820151816001019081610b36919061323d565b506040820151816002019081610b4c919061323d565b506060820151816003015560808201518160040155905050610b6e6007611b15565b7f1c05098ed1ff38e6238d2b1b04b2c7977d4c94ce651bda6473f9dba8dbf01da03384604051610b9f92919061330f565b60405180910390a150505050505050565b600080600660008481526020019081526020016000206040518060a0016040529081600082018054610be190612d40565b80601f0160208091040260200160405190810160405280929190818152602001828054610c0d90612d40565b8015610c5a5780601f10610c2f57610100808354040283529160200191610c5a565b820191906000526020600020905b815481529060010190602001808311610c3d57829003601f168201915b50505050508152602001600182018054610c7390612d40565b80601f0160208091040260200160405190810160405280929190818152602001828054610c9f90612d40565b8015610cec5780601f10610cc157610100808354040283529160200191610cec565b820191906000526020600020905b815481529060010190602001808311610ccf57829003601f168201915b50505050508152602001600282018054610d0590612d40565b80601f0160208091040260200160405190810160405280929190818152602001828054610d3190612d40565b8015610d7e5780601f10610d5357610100808354040283529160200191610d7e565b820191906000526020600020905b815481529060010190602001808311610d6157829003601f168201915b505050505081526020016003820154815260200160048201548152505090506000428260800151109050610de76040518060400160405280600f81526020017f6973457870697265644f663a202573000000000000000000000000000000000081525082611b2b565b8092505050919050565b606060018054610e0090612d40565b80601f0160208091040260200160405190810160405280929190818152602001828054610e2c90612d40565b8015610e795780601f10610e4e57610100808354040283529160200191610e79565b820191906000526020600020905b815481529060010190602001808311610e5c57829003601f168201915b5050505050905090565b610e95610e8e61141e565b8383611bc7565b5050565b600080610ea583610924565b73ffffffffffffffffffffffffffffffffffffffff163373ffffffffffffffffffffffffffffffffffffffff16149050610f146040518060400160405280600d81526020017f69734f776e65724f663a2025730000000000000000000000000000000000000081525082611b2b565b80915050919050565b610f2e610f2861141e565b8361174f565b610f6d576040517f08c379a0000000000000000000000000000000000000000000000000000000008152600401610f6490612f73565b60405180910390fd5b610f7984848484611d33565b50505050565b6060610f8a826113d3565b6000600660008481526020019081526020016000206040518060a0016040529081600082018054610fba90612d40565b80601f0160208091040260200160405190810160405280929190818152602001828054610fe690612d40565b80156110335780601f1061100857610100808354040283529160200191611033565b820191906000526020600020905b81548152906001019060200180831161101657829003601f168201915b5050505050815260200160018201805461104c90612d40565b80601f016020809104026020016040519081016040528092919081815260200182805461107890612d40565b80156110c55780601f1061109a576101008083540402835291602001916110c5565b820191906000526020600020905b8154815290600101906020018083116110a857829003601f168201915b505050505081526020016002820180546110de90612d40565b80601f016020809104026020016040519081016040528092919081815260200182805461110a90612d40565b80156111575780601f1061112c57610100808354040283529160200191611157565b820191906000526020600020905b81548152906001019060200180831161113a57829003601f168201915b5050505050815260200160038201548152602001600482015481525050905060006111cc8260000151836040015184602001516111978660600151611d8f565b6111a48760800151611d8f565b6040516020016111b8959493929190613750565b604051602081830303815290604052611eef565b905061120d6040518060400160405280600881526020017f6a736f6e3a20257300000000000000000000000000000000000000000000000081525082612086565b6000816040516020016112209190613897565b6040516020818303038152906040529050809350505050919050565b6000600560008473ffffffffffffffffffffffffffffffffffffffff1673ffffffffffffffffffffffffffffffffffffffff16815260200190815260200160002060008373ffffffffffffffffffffffffffffffffffffffff1673ffffffffffffffffffffffffffffffffffffffff16815260200190815260200160002060009054906101000a900460ff16905092915050565b611366816040516024016112e491906126fe565b6040516020818303038152906040527f41304fac000000000000000000000000000000000000000000000000000000007bffffffffffffffffffffffffffffffffffffffffffffffffffffffff19166020820180517bffffffffffffffffffffffffffffffffffffffffffffffffffffffff8381831617835250505050612122565b50565b60007f01ffc9a7000000000000000000000000000000000000000000000000000000007bffffffffffffffffffffffffffffffffffffffffffffffffffffffff1916827bffffffffffffffffffffffffffffffffffffffffffffffffffffffff1916149050919050565b6113dc8161214b565b61141b576040517f08c379a000000000000000000000000000000000000000000000000000000000815260040161141290612fdf565b60405180910390fd5b50565b600033905090565b816004600083815260200190815260200160002060006101000a81548173ffffffffffffffffffffffffffffffffffffffff021916908373ffffffffffffffffffffffffffffffffffffffff160217905550808273ffffffffffffffffffffffffffffffffffffffff1661149983610924565b73ffffffffffffffffffffffffffffffffffffffff167f8c5be1e5ebec7d5bd14f71427d1e84f3dd0314c0f7b2291e5b200ac8c7c3b92560405160405180910390a45050565b6114e8826113d3565b6000600660008481526020019081526020016000206040518060a001604052908160008201805461151890612d40565b80601f016020809104026020016040519081016040528092919081815260200182805461154490612d40565b80156115915780601f1061156657610100808354040283529160200191611591565b820191906000526020600020905b81548152906001019060200180831161157457829003601f168201915b505050505081526020016001820180546115aa90612d40565b80601f01602080910402602001604051908101604052809291908181526020018280546115d690612d40565b80156116235780601f106115f857610100808354040283529160200191611623565b820191906000526020600020905b81548152906001019060200180831161160657829003601f168201915b5050505050815260200160028201805461163c90612d40565b80601f016020809104026020016040519081016040528092919081815260200182805461166890612d40565b80156116b55780601f1061168a576101008083540402835291602001916116b5565b820191906000526020600020905b81548152906001019060200180831161169857829003601f168201915b5050505050815260200160038201548152602001600482015481525050905081816020018190525080600660008581526020019081526020016000206000820151816000019081611706919061323d565b50602082015181600101908161171c919061323d565b506040820151816002019081611732919061323d565b506060820151816003015560808201518160040155905050505050565b60008061175b83610924565b90508073ffffffffffffffffffffffffffffffffffffffff168473ffffffffffffffffffffffffffffffffffffffff16148061179d575061179c818561123c565b5b806117db57508373ffffffffffffffffffffffffffffffffffffffff166117c3846105c7565b73ffffffffffffffffffffffffffffffffffffffff16145b91505092915050565b8273ffffffffffffffffffffffffffffffffffffffff1661180482610924565b73ffffffffffffffffffffffffffffffffffffffff161461185a576040517f08c379a00000000000000000000000000000000000000000000000000000000081526004016118519061392b565b60405180910390fd5b600073ffffffffffffffffffffffffffffffffffffffff168273ffffffffffffffffffffffffffffffffffffffff16036118c9576040517f08c379a00000000000000000000000000000000000000000000000000000000081526004016118c0906139bd565b60405180910390fd5b6118d48383836121b7565b6118df600082611426565b6001600360008573ffffffffffffffffffffffffffffffffffffffff1673ffffffffffffffffffffffffffffffffffffffff168152602001908152602001600020600082825461192f9190613a0c565b925050819055506001600360008473ffffffffffffffffffffffffffffffffffffffff1673ffffffffffffffffffffffffffffffffffffffff16815260200190815260200160002060008282546119869190613a40565b92505081905550816002600083815260200190815260200160002060006101000a81548173ffffffffffffffffffffffffffffffffffffffff021916908373ffffffffffffffffffffffffffffffffffffffff160217905550808273ffffffffffffffffffffffffffffffffffffffff168473ffffffffffffffffffffffffffffffffffffffff167fddf252ad1be2c89b69c2b068fc378daa952ba7f163c4a11628f55a4df523b3ef60405160405180910390a4611a458383836121bc565b505050565b600081600001549050919050565b611a728282604051806020016040528060008152506121c1565b5050565b611b10838383604051602401611a8e93929190613a74565b6040516020818303038152906040527f1c7ec448000000000000000000000000000000000000000000000000000000007bffffffffffffffffffffffffffffffffffffffffffffffffffffffff19166020820180517bffffffffffffffffffffffffffffffffffffffffffffffffffffffff8381831617835250505050612122565b505050565b6001816000016000828254019250508190555050565b611bc38282604051602401611b41929190613ab2565b6040516020818303038152906040527fc3b55635000000000000000000000000000000000000000000000000000000007bffffffffffffffffffffffffffffffffffffffffffffffffffffffff19166020820180517bffffffffffffffffffffffffffffffffffffffffffffffffffffffff8381831617835250505050612122565b5050565b8173ffffffffffffffffffffffffffffffffffffffff168373ffffffffffffffffffffffffffffffffffffffff1603611c35576040517f08c379a0000000000000000000000000000000000000000000000000000000008152600401611c2c90613b2e565b60405180910390fd5b80600560008573ffffffffffffffffffffffffffffffffffffffff1673ffffffffffffffffffffffffffffffffffffffff16815260200190815260200160002060008473ffffffffffffffffffffffffffffffffffffffff1673ffffffffffffffffffffffffffffffffffffffff16815260200190815260200160002060006101000a81548160ff0219169083151502179055508173ffffffffffffffffffffffffffffffffffffffff168373ffffffffffffffffffffffffffffffffffffffff167f17307eab39ab6107e8899845ad3d59bd9653f200f220920489ca2b5937696c3183604051611d269190612653565b60405180910390a3505050565b611d3e8484846117e4565b611d4a8484848461221c565b611d89576040517f08c379a0000000000000000000000000000000000000000000000000000000008152600401611d8090613bc0565b60405180910390fd5b50505050565b606060008203611dd6576040518060400160405280600181526020017f30000000000000000000000000000000000000000000000000000000000000008152509050611eea565b600082905060005b60008214611e08578080611df190613be0565b915050600a82611e019190613c57565b9150611dde565b60008167ffffffffffffffff811115611e2457611e23612855565b5b6040519080825280601f01601f191660200182016040528015611e565781602001600182028036833780820191505090505b5090505b60008514611ee357600182611e6f9190613a0c565b9150600a85611e7e9190613c88565b6030611e8a9190613a40565b60f81b818381518110611ea057611e9f613cb9565b5b60200101907effffffffffffffffffffffffffffffffffffffffffffffffffffffffffffff1916908160001a905350600a85611edc9190613c57565b9450611e5a565b8093505050505b919050565b606060008251905060008103611f175760405180602001604052806000815250915050612081565b60006003600283611f289190613a40565b611f329190613c57565b6004611f3e9190613ce8565b90506000602082611f4f9190613a40565b67ffffffffffffffff811115611f6857611f67612855565b5b6040519080825280601f01601f191660200182016040528015611f9a5781602001600182028036833780820191505090505b5090506000604051806060016040528060408152602001613f42604091399050600181016020830160005b8681101561203e5760038101905062ffffff818a015116603f8160121c168401518060081b905060ff603f83600c1c1686015116810190508060081b905060ff603f8360061c1686015116810190508060081b905060ff603f831686015116810190508060e01b90508084526004840193505050611fc5565b506003860660018114612058576002811461206857612073565b613d3d60f01b6002830352612073565b603d60f81b60018303525b508484525050819450505050505b919050565b61211e828260405160240161209c929190613d2a565b6040516020818303038152906040527f4b5c4277000000000000000000000000000000000000000000000000000000007bffffffffffffffffffffffffffffffffffffffffffffffffffffffff19166020820180517bffffffffffffffffffffffffffffffffffffffffffffffffffffffff8381831617835250505050612122565b5050565b60008151905060006a636f6e736f6c652e6c6f679050602083016000808483855afa5050505050565b60008073ffffffffffffffffffffffffffffffffffffffff166002600084815260200190815260200160002060009054906101000a900473ffffffffffffffffffffffffffffffffffffffff1673ffffffffffffffffffffffffffffffffffffffff1614159050919050565b505050565b505050565b6121cb83836123a3565b6121d8600084848461221c565b612217576040517f08c379a000000000000000000000000000000000000000000000000000000000815260040161220e90613bc0565b60405180910390fd5b505050565b600061223d8473ffffffffffffffffffffffffffffffffffffffff1661257c565b15612396578373ffffffffffffffffffffffffffffffffffffffff1663150b7a0261226661141e565b8786866040518563ffffffff1660e01b81526004016122889493929190613db6565b6020604051808303816000875af19250505080156122c457506040513d601f19601f820116820180604052508101906122c19190613e17565b60015b612346573d80600081146122f4576040519150601f19603f3d011682016040523d82523d6000602084013e6122f9565b606091505b50600081510361233e576040517f08c379a000000000000000000000000000000000000000000000000000000000815260040161233590613bc0565b60405180910390fd5b805181602001fd5b63150b7a0260e01b7bffffffffffffffffffffffffffffffffffffffffffffffffffffffff1916817bffffffffffffffffffffffffffffffffffffffffffffffffffffffff19161491505061239b565b600190505b949350505050565b600073ffffffffffffffffffffffffffffffffffffffff168273ffffffffffffffffffffffffffffffffffffffff1603612412576040517f08c379a000000000000000000000000000000000000000000000000000000000815260040161240990613e90565b60405180910390fd5b61241b8161214b565b1561245b576040517f08c379a000000000000000000000000000000000000000000000000000000000815260040161245290613efc565b60405180910390fd5b612467600083836121b7565b6001600360008473ffffffffffffffffffffffffffffffffffffffff1673ffffffffffffffffffffffffffffffffffffffff16815260200190815260200160002060008282546124b79190613a40565b92505081905550816002600083815260200190815260200160002060006101000a81548173ffffffffffffffffffffffffffffffffffffffff021916908373ffffffffffffffffffffffffffffffffffffffff160217905550808273ffffffffffffffffffffffffffffffffffffffff16600073ffffffffffffffffffffffffffffffffffffffff167fddf252ad1be2c89b69c2b068fc378daa952ba7f163c4a11628f55a4df523b3ef60405160405180910390a4612578600083836121bc565b5050565b6000808273ffffffffffffffffffffffffffffffffffffffff163b119050919050565b6000604051905090565b600080fd5b600080fd5b60007fffffffff0000000000000000000000000000000000000000000000000000000082169050919050565b6125e8816125b3565b81146125f357600080fd5b50565b600081359050612605816125df565b92915050565b600060208284031215612621576126206125a9565b5b600061262f848285016125f6565b91505092915050565b60008115159050919050565b61264d81612638565b82525050565b60006020820190506126686000830184612644565b92915050565b600081519050919050565b600082825260208201905092915050565b60005b838110156126a857808201518184015260208101905061268d565b60008484015250505050565b6000601f19601f8301169050919050565b60006126d08261266e565b6126da8185612679565b93506126ea81856020860161268a565b6126f3816126b4565b840191505092915050565b6000602082019050818103600083015261271881846126c5565b905092915050565b6000819050919050565b61273381612720565b811461273e57600080fd5b50565b6000813590506127508161272a565b92915050565b60006020828403121561276c5761276b6125a9565b5b600061277a84828501612741565b91505092915050565b600073ffffffffffffffffffffffffffffffffffffffff82169050919050565b60006127ae82612783565b9050919050565b6127be816127a3565b82525050565b60006020820190506127d960008301846127b5565b92915050565b6127e8816127a3565b81146127f357600080fd5b50565b600081359050612805816127df565b92915050565b60008060408385031215612822576128216125a9565b5b6000612830858286016127f6565b925050602061284185828601612741565b9150509250929050565b600080fd5b600080fd5b7f4e487b7100000000000000000000000000000000000000000000000000000000600052604160045260246000fd5b61288d826126b4565b810181811067ffffffffffffffff821117156128ac576128ab612855565b5b80604052505050565b60006128bf61259f565b90506128cb8282612884565b919050565b600067ffffffffffffffff8211156128eb576128ea612855565b5b6128f4826126b4565b9050602081019050919050565b82818337600083830152505050565b600061292361291e846128d0565b6128b5565b90508281526020810184848401111561293f5761293e612850565b5b61294a848285612901565b509392505050565b600082601f8301126129675761296661284b565b5b8135612977848260208601612910565b91505092915050565b60008060408385031215612997576129966125a9565b5b60006129a585828601612741565b925050602083013567ffffffffffffffff8111156129c6576129c56125ae565b5b6129d285828601612952565b9150509250929050565b6000806000606084860312156129f5576129f46125a9565b5b6000612a03868287016127f6565b9350506020612a14868287016127f6565b9250506040612a2586828701612741565b9150509250925092565b600060208284031215612a4557612a446125a9565b5b6000612a53848285016127f6565b91505092915050565b612a6581612720565b82525050565b6000602082019050612a806000830184612a5c565b92915050565b60008060008060808587031215612aa057612a9f6125a9565b5b600085013567ffffffffffffffff811115612abe57612abd6125ae565b5b612aca87828801612952565b945050602085013567ffffffffffffffff811115612aeb57612aea6125ae565b5b612af787828801612952565b935050604085013567ffffffffffffffff811115612b1857612b176125ae565b5b612b2487828801612952565b9250506060612b3587828801612741565b91505092959194509250565b612b4a81612638565b8114612b5557600080fd5b50565b600081359050612b6781612b41565b92915050565b60008060408385031215612b8457612b836125a9565b5b6000612b92858286016127f6565b9250506020612ba385828601612b58565b9150509250929050565b600067ffffffffffffffff821115612bc857612bc7612855565b5b612bd1826126b4565b9050602081019050919050565b6000612bf1612bec84612bad565b6128b5565b905082815260208101848484011115612c0d57612c0c612850565b5b612c18848285612901565b509392505050565b600082601f830112612c3557612c3461284b565b5b8135612c45848260208601612bde565b91505092915050565b60008060008060808587031215612c6857612c676125a9565b5b6000612c76878288016127f6565b9450506020612c87878288016127f6565b9350506040612c9887828801612741565b925050606085013567ffffffffffffffff811115612cb957612cb86125ae565b5b612cc587828801612c20565b91505092959194509250565b60008060408385031215612ce857612ce76125a9565b5b6000612cf6858286016127f6565b9250506020612d07858286016127f6565b9150509250929050565b7f4e487b7100000000000000000000000000000000000000000000000000000000600052602260045260246000fd5b60006002820490506001821680612d5857607f821691505b602082108103612d6b57612d6a612d11565b5b50919050565b7f4552433732313a20617070726f76616c20746f2063757272656e74206f776e6560008201527f7200000000000000000000000000000000000000000000000000000000000000602082015250565b6000612dcd602183612679565b9150612dd882612d71565b604082019050919050565b60006020820190508181036000830152612dfc81612dc0565b9050919050565b7f4552433732313a20617070726f76652063616c6c6572206973206e6f7420746f60008201527f6b656e206f776e6572206e6f7220617070726f76656420666f7220616c6c0000602082015250565b6000612e5f603e83612679565b9150612e6a82612e03565b604082019050919050565b60006020820190508181036000830152612e8e81612e52565b9050919050565b7f596f7520617265206e6f74206f776e6572206f662074686973204e46542e0000600082015250565b6000612ecb601e83612679565b9150612ed682612e95565b602082019050919050565b60006020820190508181036000830152612efa81612ebe565b9050919050565b7f4552433732313a2063616c6c6572206973206e6f7420746f6b656e206f776e6560008201527f72206e6f7220617070726f766564000000000000000000000000000000000000602082015250565b6000612f5d602e83612679565b9150612f6882612f01565b604082019050919050565b60006020820190508181036000830152612f8c81612f50565b9050919050565b7f4552433732313a20696e76616c696420746f6b656e2049440000000000000000600082015250565b6000612fc9601883612679565b9150612fd482612f93565b602082019050919050565b60006020820190508181036000830152612ff881612fbc565b9050919050565b7f4552433732313a2061646472657373207a65726f206973206e6f74206120766160008201527f6c6964206f776e65720000000000000000000000000000000000000000000000602082015250565b600061305b602983612679565b915061306682612fff565b604082019050919050565b6000602082019050818103600083015261308a8161304e565b9050919050565b60008190508160005260206000209050919050565b60006020601f8301049050919050565b600082821b905092915050565b6000600883026130f37fffffffffffffffffffffffffffffffffffffffffffffffffffffffffffffffff826130b6565b6130fd86836130b6565b95508019841693508086168417925050509392505050565b6000819050919050565b600061313a61313561313084612720565b613115565b612720565b9050919050565b6000819050919050565b6131548361311f565b61316861316082613141565b8484546130c3565b825550505050565b600090565b61317d613170565b61318881848461314b565b505050565b5b818110156131ac576131a1600082613175565b60018101905061318e565b5050565b601f8211156131f1576131c281613091565b6131cb846130a6565b810160208510156131da578190505b6131ee6131e6856130a6565b83018261318d565b50505b505050565b600082821c905092915050565b6000613214600019846008026131f6565b1980831691505092915050565b600061322d8383613203565b9150826002028217905092915050565b6132468261266e565b67ffffffffffffffff81111561325f5761325e612855565b5b6132698254612d40565b6132748282856131b0565b600060209050601f8311600181146132a75760008415613295578287015190505b61329f8582613221565b865550613307565b601f1984166132b586613091565b60005b828110156132dd578489015182556001820191506020850194506020810190506132b8565b868310156132fa57848901516132f6601f891682613203565b8355505b6001600288020188555050505b505050505050565b600060408201905061332460008301856127b5565b6133316020830184612a5c565b9392505050565b600081905092915050565b7f7b226e616d65223a000000000000000000000000000000000000000000000000600082015250565b6000613379600883613338565b915061338482613343565b600882019050919050565b7f2200000000000000000000000000000000000000000000000000000000000000600082015250565b60006133c5600183613338565b91506133d08261338f565b600182019050919050565b60006133e68261266e565b6133f08185613338565b935061340081856020860161268a565b80840191505092915050565b7f222c000000000000000000000000000000000000000000000000000000000000600082015250565b6000613442600283613338565b915061344d8261340c565b600282019050919050565b7f226465736372697074696f6e223a000000000000000000000000000000000000600082015250565b600061348e600e83613338565b915061349982613458565b600e82019050919050565b7f22696d616765223a200000000000000000000000000000000000000000000000600082015250565b60006134da600983613338565b91506134e5826134a4565b600982019050919050565b7f2261747472696275746573223a205b0000000000000000000000000000000000600082015250565b6000613526600f83613338565b9150613531826134f0565b600f82019050919050565b7f7b22646973706c61795f74797065223a202264617465222c202274726169745f60008201527f74797065223a2022637265617465645f6174222c202276616c7565223a202200602082015250565b6000613598603f83613338565b91506135a38261353c565b603f82019050919050565b7f227d2c0000000000000000000000000000000000000000000000000000000000600082015250565b60006135e4600383613338565b91506135ef826135ae565b600382019050919050565b7f7b22646973706c61795f74797065223a202264617465222c202274726169745f60008201527f74797065223a20226475655f64617465222c202276616c7565223a2022000000602082015250565b6000613656603d83613338565b9150613661826135fa565b603d82019050919050565b7f227d000000000000000000000000000000000000000000000000000000000000600082015250565b60006136a2600283613338565b91506136ad8261366c565b600282019050919050565b7f5d00000000000000000000000000000000000000000000000000000000000000600082015250565b60006136ee600183613338565b91506136f9826136b8565b600182019050919050565b7f7d00000000000000000000000000000000000000000000000000000000000000600082015250565b600061373a600183613338565b915061374582613704565b600182019050919050565b600061375b8261336c565b9150613766826133b8565b915061377282886133db565b915061377d82613435565b915061378882613481565b9150613793826133b8565b915061379f82876133db565b91506137aa82613435565b91506137b5826134cd565b91506137c0826133b8565b91506137cc82866133db565b91506137d782613435565b91506137e282613519565b91506137ed8261358b565b91506137f982856133db565b9150613804826135d7565b915061380f82613649565b915061381b82846133db565b915061382682613695565b9150613831826136e1565b915061383c8261372d565b91508190509695505050505050565b7f646174613a6170706c69636174696f6e2f6a736f6e3b6261736536342c000000600082015250565b6000613881601d83613338565b915061388c8261384b565b601d82019050919050565b60006138a282613874565b91506138ae82846133db565b915081905092915050565b7f4552433732313a207472616e736665722066726f6d20696e636f72726563742060008201527f6f776e6572000000000000000000000000000000000000000000000000000000602082015250565b6000613915602583612679565b9150613920826138b9565b604082019050919050565b6000602082019050818103600083015261394481613908565b9050919050565b7f4552433732313a207472616e7366657220746f20746865207a65726f2061646460008201527f7265737300000000000000000000000000000000000000000000000000000000602082015250565b60006139a7602483612679565b91506139b28261394b565b604082019050919050565b600060208201905081810360008301526139d68161399a565b9050919050565b7f4e487b7100000000000000000000000000000000000000000000000000000000600052601160045260246000fd5b6000613a1782612720565b9150613a2283612720565b9250828203905081811115613a3a57613a396139dd565b5b92915050565b6000613a4b82612720565b9150613a5683612720565b9250828201905080821115613a6e57613a6d6139dd565b5b92915050565b60006060820190508181036000830152613a8e81866126c5565b9050613a9d6020830185612a5c565b613aaa60408301846127b5565b949350505050565b60006040820190508181036000830152613acc81856126c5565b9050613adb6020830184612644565b9392505050565b7f4552433732313a20617070726f766520746f2063616c6c657200000000000000600082015250565b6000613b18601983612679565b9150613b2382613ae2565b602082019050919050565b60006020820190508181036000830152613b4781613b0b565b9050919050565b7f4552433732313a207472616e7366657220746f206e6f6e20455243373231526560008201527f63656976657220696d706c656d656e7465720000000000000000000000000000602082015250565b6000613baa603283612679565b9150613bb582613b4e565b604082019050919050565b60006020820190508181036000830152613bd981613b9d565b9050919050565b6000613beb82612720565b91507fffffffffffffffffffffffffffffffffffffffffffffffffffffffffffffffff8203613c1d57613c1c6139dd565b5b600182019050919050565b7f4e487b7100000000000000000000000000000000000000000000000000000000600052601260045260246000fd5b6000613c6282612720565b9150613c6d83612720565b925082613c7d57613c7c613c28565b5b828204905092915050565b6000613c9382612720565b9150613c9e83612720565b925082613cae57613cad613c28565b5b828206905092915050565b7f4e487b7100000000000000000000000000000000000000000000000000000000600052603260045260246000fd5b6000613cf382612720565b9150613cfe83612720565b9250828202613d0c81612720565b91508282048414831517613d2357613d226139dd565b5b5092915050565b60006040820190508181036000830152613d4481856126c5565b90508181036020830152613d5881846126c5565b90509392505050565b600081519050919050565b600082825260208201905092915050565b6000613d8882613d61565b613d928185613d6c565b9350613da281856020860161268a565b613dab816126b4565b840191505092915050565b6000608082019050613dcb60008301876127b5565b613dd860208301866127b5565b613de56040830185612a5c565b8181036060830152613df78184613d7d565b905095945050505050565b600081519050613e11816125df565b92915050565b600060208284031215613e2d57613e2c6125a9565b5b6000613e3b84828501613e02565b91505092915050565b7f4552433732313a206d696e7420746f20746865207a65726f2061646472657373600082015250565b6000613e7a602083612679565b9150613e8582613e44565b602082019050919050565b60006020820190508181036000830152613ea981613e6d565b9050919050565b7f4552433732313a20746f6b656e20616c7265616479206d696e74656400000000600082015250565b6000613ee6601c83612679565b9150613ef182613eb0565b602082019050919050565b60006020820190508181036000830152613f1581613ed9565b905091905056fe416e204e465420772f20494420257320686173206265656e206d696e74656420746f2025734142434445464748494a4b4c4d4e4f505152535455565758595a6162636465666768696a6b6c6d6e6f707172737475767778797a303132333435363738392b2fa264697066735822122009db096e9940979c05dd2e2b03ee272008fc2d9ee0200480ebfede97a81cd92564736f6c63430008110033",
  "linkReferences": {},
  "deployedLinkReferences": {}
}